{
	"level-1/Shipping.sol": {
		"Shipping": {
			"abi": [
				{
					"inputs": [],
					"stateMutability": "nonpayable",
					"type": "constructor"
				},
				{
					"anonymous": false,
					"inputs": [
						{
							"indexed": false,
							"internalType": "string",
							"name": "description",
							"type": "string"
						}
					],
					"name": "LogNewAlert",
					"type": "event"
				},
				{
					"inputs": [],
					"name": "Delivered",
					"outputs": [],
					"stateMutability": "nonpayable",
					"type": "function"
				},
				{
					"inputs": [],
					"name": "Shipped",
					"outputs": [],
					"stateMutability": "nonpayable",
					"type": "function"
				},
				{
					"inputs": [],
					"name": "Status",
					"outputs": [
						{
							"internalType": "enum Shipping.ShippingStatus",
							"name": "",
							"type": "uint8"
						}
					],
					"stateMutability": "view",
					"type": "function"
				}
			],
			"devdoc": {
				"kind": "dev",
				"methods": {},
				"version": 1
			},
			"evm": {
				"assembly": "    /* \"level-1/Shipping.sol\":35:1451  contract Shipping { ... */\n  mstore(0x40, 0x80)\n    /* \"level-1/Shipping.sol\":460:509  constructor(){ status = ShippingStatus.Pending; } */\n  callvalue\n  dup1\n  iszero\n  tag_1\n  jumpi\n  0x00\n  dup1\n  revert\ntag_1:\n  pop\n    /* \"level-1/Shipping.sol\":484:506  ShippingStatus.Pending */\n  0x00\n    /* \"level-1/Shipping.sol\":475:481  status */\n  dup1\n  0x00\n    /* \"level-1/Shipping.sol\":475:506  status = ShippingStatus.Pending */\n  0x0100\n  exp\n  dup2\n  sload\n  dup2\n  0xff\n  mul\n  not\n  and\n  swap1\n  dup4\n  0x02\n  dup2\n  gt\n  iszero\n  tag_4\n  jumpi\n  tag_5\n  tag_6\n  jump\t// in\ntag_5:\ntag_4:\n  mul\n  or\n  swap1\n  sstore\n  pop\n    /* \"level-1/Shipping.sol\":35:1451  contract Shipping { ... */\n  jump(tag_7)\n    /* \"#utility.yul\":7:187   */\ntag_6:\n    /* \"#utility.yul\":55:132   */\n  0x4e487b7100000000000000000000000000000000000000000000000000000000\n    /* \"#utility.yul\":52:53   */\n  0x00\n    /* \"#utility.yul\":45:133   */\n  mstore\n    /* \"#utility.yul\":152:156   */\n  0x21\n    /* \"#utility.yul\":149:150   */\n  0x04\n    /* \"#utility.yul\":142:157   */\n  mstore\n    /* \"#utility.yul\":176:180   */\n  0x24\n    /* \"#utility.yul\":173:174   */\n  0x00\n    /* \"#utility.yul\":166:181   */\n  revert\n    /* \"level-1/Shipping.sol\":35:1451  contract Shipping { ... */\ntag_7:\n  dataSize(sub_0)\n  dup1\n  dataOffset(sub_0)\n  0x00\n  codecopy\n  0x00\n  return\nstop\n\nsub_0: assembly {\n        /* \"level-1/Shipping.sol\":35:1451  contract Shipping { ... */\n      mstore(0x40, 0x80)\n      callvalue\n      dup1\n      iszero\n      tag_1\n      jumpi\n      0x00\n      dup1\n      revert\n    tag_1:\n      pop\n      jumpi(tag_2, lt(calldatasize, 0x04))\n      shr(0xe0, calldataload(0x00))\n      dup1\n      0x45f09ce9\n      eq\n      tag_3\n      jumpi\n      dup1\n      0x779822f7\n      eq\n      tag_4\n      jumpi\n      dup1\n      0x7e59301e\n      eq\n      tag_5\n      jumpi\n    tag_2:\n      0x00\n      dup1\n      revert\n        /* \"level-1/Shipping.sol\":1359:1448  function Status() public view returns (ShippingStatus) { ... */\n    tag_3:\n      tag_6\n      tag_7\n      jump\t// in\n    tag_6:\n      mload(0x40)\n      tag_8\n      swap2\n      swap1\n      tag_9\n      jump\t// in\n    tag_8:\n      mload(0x40)\n      dup1\n      swap2\n      sub\n      swap1\n      return\n        /* \"level-1/Shipping.sol\":743:880  function Delivered() public { ... */\n    tag_4:\n      tag_10\n      tag_11\n      jump\t// in\n    tag_10:\n      stop\n        /* \"level-1/Shipping.sol\":557:695  function Shipped() public {... */\n    tag_5:\n      tag_12\n      tag_13\n      jump\t// in\n    tag_12:\n      stop\n        /* \"level-1/Shipping.sol\":1359:1448  function Status() public view returns (ShippingStatus) { ... */\n    tag_7:\n        /* \"level-1/Shipping.sol\":1398:1412  ShippingStatus */\n      0x00\n        /* \"level-1/Shipping.sol\":1433:1439  status */\n      dup1\n      0x00\n      swap1\n      sload\n      swap1\n      0x0100\n      exp\n      swap1\n      div\n      0xff\n      and\n        /* \"level-1/Shipping.sol\":1426:1439  return status */\n      swap1\n      pop\n        /* \"level-1/Shipping.sol\":1359:1448  function Status() public view returns (ShippingStatus) { ... */\n      swap1\n      jump\t// out\n        /* \"level-1/Shipping.sol\":743:880  function Delivered() public { ... */\n    tag_11:\n        /* \"level-1/Shipping.sol\":792:816  ShippingStatus.Delivered */\n      0x02\n        /* \"level-1/Shipping.sol\":783:789  status */\n      0x00\n      dup1\n        /* \"level-1/Shipping.sol\":783:816  status = ShippingStatus.Delivered */\n      0x0100\n      exp\n      dup2\n      sload\n      dup2\n      0xff\n      mul\n      not\n      and\n      swap1\n      dup4\n      0x02\n      dup2\n      gt\n      iszero\n      tag_16\n      jumpi\n      tag_17\n      tag_18\n      jump\t// in\n    tag_17:\n    tag_16:\n      mul\n      or\n      swap1\n      sstore\n      pop\n        /* \"level-1/Shipping.sol\":833:872  LogNewAlert(\"Your package has arrived\") */\n      0xca75c80642b93c980135b8355995abae3ab06033dc81f956b3824323b4903ef5\n      mload(0x40)\n      tag_19\n      swap1\n      tag_20\n      jump\t// in\n    tag_19:\n      mload(0x40)\n      dup1\n      swap2\n      sub\n      swap1\n      log1\n        /* \"level-1/Shipping.sol\":743:880  function Delivered() public { ... */\n      jump\t// out\n        /* \"level-1/Shipping.sol\":557:695  function Shipped() public {... */\n    tag_13:\n        /* \"level-1/Shipping.sol\":603:625  ShippingStatus.Shipped */\n      0x01\n        /* \"level-1/Shipping.sol\":594:600  status */\n      0x00\n      dup1\n        /* \"level-1/Shipping.sol\":594:625  status = ShippingStatus.Shipped */\n      0x0100\n      exp\n      dup2\n      sload\n      dup2\n      0xff\n      mul\n      not\n      and\n      swap1\n      dup4\n      0x02\n      dup2\n      gt\n      iszero\n      tag_22\n      jumpi\n      tag_23\n      tag_18\n      jump\t// in\n    tag_23:\n    tag_22:\n      mul\n      or\n      swap1\n      sstore\n      pop\n        /* \"level-1/Shipping.sol\":642:686  LogNewAlert(\"Your package has been shipped\") */\n      0xca75c80642b93c980135b8355995abae3ab06033dc81f956b3824323b4903ef5\n      mload(0x40)\n      tag_24\n      swap1\n      tag_25\n      jump\t// in\n    tag_24:\n      mload(0x40)\n      dup1\n      swap2\n      sub\n      swap1\n      log1\n        /* \"level-1/Shipping.sol\":557:695  function Shipped() public {... */\n      jump\t// out\n        /* \"#utility.yul\":7:187   */\n    tag_18:\n        /* \"#utility.yul\":55:132   */\n      0x4e487b7100000000000000000000000000000000000000000000000000000000\n        /* \"#utility.yul\":52:53   */\n      0x00\n        /* \"#utility.yul\":45:133   */\n      mstore\n        /* \"#utility.yul\":152:156   */\n      0x21\n        /* \"#utility.yul\":149:150   */\n      0x04\n        /* \"#utility.yul\":142:157   */\n      mstore\n        /* \"#utility.yul\":176:180   */\n      0x24\n        /* \"#utility.yul\":173:174   */\n      0x00\n        /* \"#utility.yul\":166:181   */\n      revert\n        /* \"#utility.yul\":193:314   */\n    tag_26:\n        /* \"#utility.yul\":282:283   */\n      0x03\n        /* \"#utility.yul\":275:280   */\n      dup2\n        /* \"#utility.yul\":272:284   */\n      lt\n        /* \"#utility.yul\":262:308   */\n      tag_38\n      jumpi\n        /* \"#utility.yul\":288:306   */\n      tag_39\n      tag_18\n      jump\t// in\n    tag_39:\n        /* \"#utility.yul\":262:308   */\n    tag_38:\n        /* \"#utility.yul\":193:314   */\n      pop\n      jump\t// out\n        /* \"#utility.yul\":320:463   */\n    tag_27:\n        /* \"#utility.yul\":373:380   */\n      0x00\n        /* \"#utility.yul\":402:407   */\n      dup2\n        /* \"#utility.yul\":391:407   */\n      swap1\n      pop\n        /* \"#utility.yul\":408:457   */\n      tag_41\n        /* \"#utility.yul\":451:456   */\n      dup3\n        /* \"#utility.yul\":408:457   */\n      tag_26\n      jump\t// in\n    tag_41:\n        /* \"#utility.yul\":320:463   */\n      swap2\n      swap1\n      pop\n      jump\t// out\n        /* \"#utility.yul\":469:612   */\n    tag_28:\n        /* \"#utility.yul\":533:542   */\n      0x00\n        /* \"#utility.yul\":566:606   */\n      tag_43\n        /* \"#utility.yul\":600:605   */\n      dup3\n        /* \"#utility.yul\":566:606   */\n      tag_27\n      jump\t// in\n    tag_43:\n        /* \"#utility.yul\":553:606   */\n      swap1\n      pop\n        /* \"#utility.yul\":469:612   */\n      swap2\n      swap1\n      pop\n      jump\t// out\n        /* \"#utility.yul\":618:777   */\n    tag_29:\n        /* \"#utility.yul\":719:770   */\n      tag_45\n        /* \"#utility.yul\":764:769   */\n      dup2\n        /* \"#utility.yul\":719:770   */\n      tag_28\n      jump\t// in\n    tag_45:\n        /* \"#utility.yul\":714:717   */\n      dup3\n        /* \"#utility.yul\":707:771   */\n      mstore\n        /* \"#utility.yul\":618:777   */\n      pop\n      pop\n      jump\t// out\n        /* \"#utility.yul\":783:1033   */\n    tag_9:\n        /* \"#utility.yul\":890:894   */\n      0x00\n        /* \"#utility.yul\":928:930   */\n      0x20\n        /* \"#utility.yul\":917:926   */\n      dup3\n        /* \"#utility.yul\":913:931   */\n      add\n        /* \"#utility.yul\":905:931   */\n      swap1\n      pop\n        /* \"#utility.yul\":941:1026   */\n      tag_47\n        /* \"#utility.yul\":1023:1024   */\n      0x00\n        /* \"#utility.yul\":1012:1021   */\n      dup4\n        /* \"#utility.yul\":1008:1025   */\n      add\n        /* \"#utility.yul\":999:1005   */\n      dup5\n        /* \"#utility.yul\":941:1026   */\n      tag_29\n      jump\t// in\n    tag_47:\n        /* \"#utility.yul\":783:1033   */\n      swap3\n      swap2\n      pop\n      pop\n      jump\t// out\n        /* \"#utility.yul\":1039:1208   */\n    tag_30:\n        /* \"#utility.yul\":1123:1134   */\n      0x00\n        /* \"#utility.yul\":1157:1163   */\n      dup3\n        /* \"#utility.yul\":1152:1155   */\n      dup3\n        /* \"#utility.yul\":1145:1164   */\n      mstore\n        /* \"#utility.yul\":1197:1201   */\n      0x20\n        /* \"#utility.yul\":1192:1195   */\n      dup3\n        /* \"#utility.yul\":1188:1202   */\n      add\n        /* \"#utility.yul\":1173:1202   */\n      swap1\n      pop\n        /* \"#utility.yul\":1039:1208   */\n      swap3\n      swap2\n      pop\n      pop\n      jump\t// out\n        /* \"#utility.yul\":1214:1388   */\n    tag_31:\n        /* \"#utility.yul\":1354:1380   */\n      0x596f7572207061636b6167652068617320617272697665640000000000000000\n        /* \"#utility.yul\":1350:1351   */\n      0x00\n        /* \"#utility.yul\":1342:1348   */\n      dup3\n        /* \"#utility.yul\":1338:1352   */\n      add\n        /* \"#utility.yul\":1331:1381   */\n      mstore\n        /* \"#utility.yul\":1214:1388   */\n      pop\n      jump\t// out\n        /* \"#utility.yul\":1394:1760   */\n    tag_32:\n        /* \"#utility.yul\":1536:1539   */\n      0x00\n        /* \"#utility.yul\":1557:1624   */\n      tag_51\n        /* \"#utility.yul\":1621:1623   */\n      0x18\n        /* \"#utility.yul\":1616:1619   */\n      dup4\n        /* \"#utility.yul\":1557:1624   */\n      tag_30\n      jump\t// in\n    tag_51:\n        /* \"#utility.yul\":1550:1624   */\n      swap2\n      pop\n        /* \"#utility.yul\":1633:1726   */\n      tag_52\n        /* \"#utility.yul\":1722:1725   */\n      dup3\n        /* \"#utility.yul\":1633:1726   */\n      tag_31\n      jump\t// in\n    tag_52:\n        /* \"#utility.yul\":1751:1753   */\n      0x20\n        /* \"#utility.yul\":1746:1749   */\n      dup3\n        /* \"#utility.yul\":1742:1754   */\n      add\n        /* \"#utility.yul\":1735:1754   */\n      swap1\n      pop\n        /* \"#utility.yul\":1394:1760   */\n      swap2\n      swap1\n      pop\n      jump\t// out\n        /* \"#utility.yul\":1766:2185   */\n    tag_20:\n        /* \"#utility.yul\":1932:1936   */\n      0x00\n        /* \"#utility.yul\":1970:1972   */\n      0x20\n        /* \"#utility.yul\":1959:1968   */\n      dup3\n        /* \"#utility.yul\":1955:1973   */\n      add\n        /* \"#utility.yul\":1947:1973   */\n      swap1\n      pop\n        /* \"#utility.yul\":2019:2028   */\n      dup2\n        /* \"#utility.yul\":2013:2017   */\n      dup2\n        /* \"#utility.yul\":2009:2029   */\n      sub\n        /* \"#utility.yul\":2005:2006   */\n      0x00\n        /* \"#utility.yul\":1994:2003   */\n      dup4\n        /* \"#utility.yul\":1990:2007   */\n      add\n        /* \"#utility.yul\":1983:2030   */\n      mstore\n        /* \"#utility.yul\":2047:2178   */\n      tag_54\n        /* \"#utility.yul\":2173:2177   */\n      dup2\n        /* \"#utility.yul\":2047:2178   */\n      tag_32\n      jump\t// in\n    tag_54:\n        /* \"#utility.yul\":2039:2178   */\n      swap1\n      pop\n        /* \"#utility.yul\":1766:2185   */\n      swap2\n      swap1\n      pop\n      jump\t// out\n        /* \"#utility.yul\":2191:2370   */\n    tag_33:\n        /* \"#utility.yul\":2331:2362   */\n      0x596f7572207061636b61676520686173206265656e2073686970706564000000\n        /* \"#utility.yul\":2327:2328   */\n      0x00\n        /* \"#utility.yul\":2319:2325   */\n      dup3\n        /* \"#utility.yul\":2315:2329   */\n      add\n        /* \"#utility.yul\":2308:2363   */\n      mstore\n        /* \"#utility.yul\":2191:2370   */\n      pop\n      jump\t// out\n        /* \"#utility.yul\":2376:2742   */\n    tag_34:\n        /* \"#utility.yul\":2518:2521   */\n      0x00\n        /* \"#utility.yul\":2539:2606   */\n      tag_57\n        /* \"#utility.yul\":2603:2605   */\n      0x1d\n        /* \"#utility.yul\":2598:2601   */\n      dup4\n        /* \"#utility.yul\":2539:2606   */\n      tag_30\n      jump\t// in\n    tag_57:\n        /* \"#utility.yul\":2532:2606   */\n      swap2\n      pop\n        /* \"#utility.yul\":2615:2708   */\n      tag_58\n        /* \"#utility.yul\":2704:2707   */\n      dup3\n        /* \"#utility.yul\":2615:2708   */\n      tag_33\n      jump\t// in\n    tag_58:\n        /* \"#utility.yul\":2733:2735   */\n      0x20\n        /* \"#utility.yul\":2728:2731   */\n      dup3\n        /* \"#utility.yul\":2724:2736   */\n      add\n        /* \"#utility.yul\":2717:2736   */\n      swap1\n      pop\n        /* \"#utility.yul\":2376:2742   */\n      swap2\n      swap1\n      pop\n      jump\t// out\n        /* \"#utility.yul\":2748:3167   */\n    tag_25:\n        /* \"#utility.yul\":2914:2918   */\n      0x00\n        /* \"#utility.yul\":2952:2954   */\n      0x20\n        /* \"#utility.yul\":2941:2950   */\n      dup3\n        /* \"#utility.yul\":2937:2955   */\n      add\n        /* \"#utility.yul\":2929:2955   */\n      swap1\n      pop\n        /* \"#utility.yul\":3001:3010   */\n      dup2\n        /* \"#utility.yul\":2995:2999   */\n      dup2\n        /* \"#utility.yul\":2991:3011   */\n      sub\n        /* \"#utility.yul\":2987:2988   */\n      0x00\n        /* \"#utility.yul\":2976:2985   */\n      dup4\n        /* \"#utility.yul\":2972:2989   */\n      add\n        /* \"#utility.yul\":2965:3012   */\n      mstore\n        /* \"#utility.yul\":3029:3160   */\n      tag_60\n        /* \"#utility.yul\":3155:3159   */\n      dup2\n        /* \"#utility.yul\":3029:3160   */\n      tag_34\n      jump\t// in\n    tag_60:\n        /* \"#utility.yul\":3021:3160   */\n      swap1\n      pop\n        /* \"#utility.yul\":2748:3167   */\n      swap2\n      swap1\n      pop\n      jump\t// out\n\n    auxdata: 0xa2646970667358221220f72870f997343c97f84783654e25aa2a78aa3f149a4b0fe48ace03d5eb62343364736f6c634300081a0033\n}\n",
				"bytecode": {
					"linkReferences": {},
					"object": "6080604052348015600e575f80fd5b505f805f6101000a81548160ff02191690836002811115602f57602e6038565b5b02179055506065565b7f4e487b71000000000000000000000000000000000000000000000000000000005f52602160045260245ffd5b6102eb806100725f395ff3fe608060405234801561000f575f80fd5b506004361061003f575f3560e01c806345f09ce914610043578063779822f7146100615780637e59301e1461006b575b5f80fd5b61004b610075565b60405161005891906101bc565b60405180910390f35b610069610089565b005b6100736100e9565b005b5f805f9054906101000a900460ff16905090565b60025f806101000a81548160ff021916908360028111156100ad576100ac610149565b5b02179055507fca75c80642b93c980135b8355995abae3ab06033dc81f956b3824323b4903ef56040516100df9061022f565b60405180910390a1565b60015f806101000a81548160ff0219169083600281111561010d5761010c610149565b5b02179055507fca75c80642b93c980135b8355995abae3ab06033dc81f956b3824323b4903ef560405161013f90610297565b60405180910390a1565b7f4e487b71000000000000000000000000000000000000000000000000000000005f52602160045260245ffd5b6003811061018757610186610149565b5b50565b5f81905061019782610176565b919050565b5f6101a68261018a565b9050919050565b6101b68161019c565b82525050565b5f6020820190506101cf5f8301846101ad565b92915050565b5f82825260208201905092915050565b7f596f7572207061636b61676520686173206172726976656400000000000000005f82015250565b5f6102196018836101d5565b9150610224826101e5565b602082019050919050565b5f6020820190508181035f8301526102468161020d565b9050919050565b7f596f7572207061636b61676520686173206265656e20736869707065640000005f82015250565b5f610281601d836101d5565b915061028c8261024d565b602082019050919050565b5f6020820190508181035f8301526102ae81610275565b905091905056fea2646970667358221220f72870f997343c97f84783654e25aa2a78aa3f149a4b0fe48ace03d5eb62343364736f6c634300081a0033",
					"opcodes": "PUSH1 0x80 PUSH1 0x40 MSTORE CALLVALUE DUP1 ISZERO PUSH1 0xE JUMPI PUSH0 DUP1 REVERT JUMPDEST POP PUSH0 DUP1 PUSH0 PUSH2 0x100 EXP DUP2 SLOAD DUP2 PUSH1 0xFF MUL NOT AND SWAP1 DUP4 PUSH1 0x2 DUP2 GT ISZERO PUSH1 0x2F JUMPI PUSH1 0x2E PUSH1 0x38 JUMP JUMPDEST JUMPDEST MUL OR SWAP1 SSTORE POP PUSH1 0x65 JUMP JUMPDEST PUSH32 0x4E487B7100000000000000000000000000000000000000000000000000000000 PUSH0 MSTORE PUSH1 0x21 PUSH1 0x4 MSTORE PUSH1 0x24 PUSH0 REVERT JUMPDEST PUSH2 0x2EB DUP1 PUSH2 0x72 PUSH0 CODECOPY PUSH0 RETURN INVALID PUSH1 0x80 PUSH1 0x40 MSTORE CALLVALUE DUP1 ISZERO PUSH2 0xF JUMPI PUSH0 DUP1 REVERT JUMPDEST POP PUSH1 0x4 CALLDATASIZE LT PUSH2 0x3F JUMPI PUSH0 CALLDATALOAD PUSH1 0xE0 SHR DUP1 PUSH4 0x45F09CE9 EQ PUSH2 0x43 JUMPI DUP1 PUSH4 0x779822F7 EQ PUSH2 0x61 JUMPI DUP1 PUSH4 0x7E59301E EQ PUSH2 0x6B JUMPI JUMPDEST PUSH0 DUP1 REVERT JUMPDEST PUSH2 0x4B PUSH2 0x75 JUMP JUMPDEST PUSH1 0x40 MLOAD PUSH2 0x58 SWAP2 SWAP1 PUSH2 0x1BC JUMP JUMPDEST PUSH1 0x40 MLOAD DUP1 SWAP2 SUB SWAP1 RETURN JUMPDEST PUSH2 0x69 PUSH2 0x89 JUMP JUMPDEST STOP JUMPDEST PUSH2 0x73 PUSH2 0xE9 JUMP JUMPDEST STOP JUMPDEST PUSH0 DUP1 PUSH0 SWAP1 SLOAD SWAP1 PUSH2 0x100 EXP SWAP1 DIV PUSH1 0xFF AND SWAP1 POP SWAP1 JUMP JUMPDEST PUSH1 0x2 PUSH0 DUP1 PUSH2 0x100 EXP DUP2 SLOAD DUP2 PUSH1 0xFF MUL NOT AND SWAP1 DUP4 PUSH1 0x2 DUP2 GT ISZERO PUSH2 0xAD JUMPI PUSH2 0xAC PUSH2 0x149 JUMP JUMPDEST JUMPDEST MUL OR SWAP1 SSTORE POP PUSH32 0xCA75C80642B93C980135B8355995ABAE3AB06033DC81F956B3824323B4903EF5 PUSH1 0x40 MLOAD PUSH2 0xDF SWAP1 PUSH2 0x22F JUMP JUMPDEST PUSH1 0x40 MLOAD DUP1 SWAP2 SUB SWAP1 LOG1 JUMP JUMPDEST PUSH1 0x1 PUSH0 DUP1 PUSH2 0x100 EXP DUP2 SLOAD DUP2 PUSH1 0xFF MUL NOT AND SWAP1 DUP4 PUSH1 0x2 DUP2 GT ISZERO PUSH2 0x10D JUMPI PUSH2 0x10C PUSH2 0x149 JUMP JUMPDEST JUMPDEST MUL OR SWAP1 SSTORE POP PUSH32 0xCA75C80642B93C980135B8355995ABAE3AB06033DC81F956B3824323B4903EF5 PUSH1 0x40 MLOAD PUSH2 0x13F SWAP1 PUSH2 0x297 JUMP JUMPDEST PUSH1 0x40 MLOAD DUP1 SWAP2 SUB SWAP1 LOG1 JUMP JUMPDEST PUSH32 0x4E487B7100000000000000000000000000000000000000000000000000000000 PUSH0 MSTORE PUSH1 0x21 PUSH1 0x4 MSTORE PUSH1 0x24 PUSH0 REVERT JUMPDEST PUSH1 0x3 DUP2 LT PUSH2 0x187 JUMPI PUSH2 0x186 PUSH2 0x149 JUMP JUMPDEST JUMPDEST POP JUMP JUMPDEST PUSH0 DUP2 SWAP1 POP PUSH2 0x197 DUP3 PUSH2 0x176 JUMP JUMPDEST SWAP2 SWAP1 POP JUMP JUMPDEST PUSH0 PUSH2 0x1A6 DUP3 PUSH2 0x18A JUMP JUMPDEST SWAP1 POP SWAP2 SWAP1 POP JUMP JUMPDEST PUSH2 0x1B6 DUP2 PUSH2 0x19C JUMP JUMPDEST DUP3 MSTORE POP POP JUMP JUMPDEST PUSH0 PUSH1 0x20 DUP3 ADD SWAP1 POP PUSH2 0x1CF PUSH0 DUP4 ADD DUP5 PUSH2 0x1AD JUMP JUMPDEST SWAP3 SWAP2 POP POP JUMP JUMPDEST PUSH0 DUP3 DUP3 MSTORE PUSH1 0x20 DUP3 ADD SWAP1 POP SWAP3 SWAP2 POP POP JUMP JUMPDEST PUSH32 0x596F7572207061636B6167652068617320617272697665640000000000000000 PUSH0 DUP3 ADD MSTORE POP JUMP JUMPDEST PUSH0 PUSH2 0x219 PUSH1 0x18 DUP4 PUSH2 0x1D5 JUMP JUMPDEST SWAP2 POP PUSH2 0x224 DUP3 PUSH2 0x1E5 JUMP JUMPDEST PUSH1 0x20 DUP3 ADD SWAP1 POP SWAP2 SWAP1 POP JUMP JUMPDEST PUSH0 PUSH1 0x20 DUP3 ADD SWAP1 POP DUP2 DUP2 SUB PUSH0 DUP4 ADD MSTORE PUSH2 0x246 DUP2 PUSH2 0x20D JUMP JUMPDEST SWAP1 POP SWAP2 SWAP1 POP JUMP JUMPDEST PUSH32 0x596F7572207061636B61676520686173206265656E2073686970706564000000 PUSH0 DUP3 ADD MSTORE POP JUMP JUMPDEST PUSH0 PUSH2 0x281 PUSH1 0x1D DUP4 PUSH2 0x1D5 JUMP JUMPDEST SWAP2 POP PUSH2 0x28C DUP3 PUSH2 0x24D JUMP JUMPDEST PUSH1 0x20 DUP3 ADD SWAP1 POP SWAP2 SWAP1 POP JUMP JUMPDEST PUSH0 PUSH1 0x20 DUP3 ADD SWAP1 POP DUP2 DUP2 SUB PUSH0 DUP4 ADD MSTORE PUSH2 0x2AE DUP2 PUSH2 0x275 JUMP JUMPDEST SWAP1 POP SWAP2 SWAP1 POP JUMP INVALID LOG2 PUSH5 0x6970667358 0x22 SLT KECCAK256 0xF7 0x28 PUSH17 0xF997343C97F84783654E25AA2A78AA3F14 SWAP11 0x4B 0xF 0xE4 DUP11 0xCE SUB 0xD5 0xEB PUSH3 0x343364 PUSH20 0x6F6C634300081A00330000000000000000000000 "
				},
				"gasEstimates": {
					"creation": {
						"codeDepositCost": "149400",
						"executionCost": "24491",
						"totalCost": "173891"
					},
					"external": {
						"Delivered()": "26226",
						"Shipped()": "26248",
						"Status()": "2539"
					},
					"internal": {
						"getStatus(enum Shipping.ShippingStatus)": "infinite"
					}
				},
				"methodIdentifiers": {
					"Delivered()": "779822f7",
					"Shipped()": "7e59301e",
					"Status()": "45f09ce9"
				}
			},
			"storageLayout": {
				"storage": [
					{
						"astId": 8,
						"contract": "level-1/Shipping.sol:Shipping",
						"label": "status",
						"offset": 0,
						"slot": "0",
						"type": "t_enum(ShippingStatus)5"
					}
				],
				"types": {
					"t_enum(ShippingStatus)5": {
						"encoding": "inplace",
						"label": "enum Shipping.ShippingStatus",
						"numberOfBytes": "1"
					}
				}
			},
			"userdoc": {
				"kind": "user",
				"methods": {},
				"version": 1
			}
		}
	}
}