{
	"level-1/ApiTest.sol": {
		"ApiTest": {
			"abi": [
				{
					"inputs": [
						{
							"internalType": "uint256",
							"name": "_stage1Lock",
							"type": "uint256"
						},
						{
							"internalType": "uint256",
							"name": "_stage2Lock",
							"type": "uint256"
						}
					],
					"stateMutability": "nonpayable",
					"type": "constructor"
				},
				{
					"inputs": [
						{
							"internalType": "bytes",
							"name": "data",
							"type": "bytes"
						}
					],
					"name": "decodeData",
					"outputs": [
						{
							"internalType": "uint256",
							"name": "",
							"type": "uint256"
						},
						{
							"internalType": "string",
							"name": "",
							"type": "string"
						}
					],
					"stateMutability": "pure",
					"type": "function"
				},
				{
					"inputs": [
						{
							"internalType": "uint256",
							"name": "price",
							"type": "uint256"
						},
						{
							"internalType": "string",
							"name": "name",
							"type": "string"
						}
					],
					"name": "encodeData",
					"outputs": [
						{
							"internalType": "bytes",
							"name": "",
							"type": "bytes"
						}
					],
					"stateMutability": "view",
					"type": "function"
				},
				{
					"inputs": [],
					"name": "getBlockNo",
					"outputs": [
						{
							"internalType": "uint256",
							"name": "",
							"type": "uint256"
						}
					],
					"stateMutability": "view",
					"type": "function"
				},
				{
					"inputs": [],
					"name": "getCoinbase",
					"outputs": [
						{
							"internalType": "address",
							"name": "",
							"type": "address"
						}
					],
					"stateMutability": "view",
					"type": "function"
				},
				{
					"inputs": [],
					"name": "getCurGasPrice",
					"outputs": [
						{
							"internalType": "uint256",
							"name": "",
							"type": "uint256"
						}
					],
					"stateMutability": "view",
					"type": "function"
				},
				{
					"inputs": [],
					"name": "getCurTime",
					"outputs": [
						{
							"internalType": "uint256",
							"name": "",
							"type": "uint256"
						}
					],
					"stateMutability": "view",
					"type": "function"
				},
				{
					"inputs": [],
					"name": "owner",
					"outputs": [
						{
							"internalType": "address",
							"name": "",
							"type": "address"
						}
					],
					"stateMutability": "view",
					"type": "function"
				},
				{
					"inputs": [],
					"name": "stage1UnlockTime",
					"outputs": [
						{
							"internalType": "uint256",
							"name": "",
							"type": "uint256"
						}
					],
					"stateMutability": "view",
					"type": "function"
				},
				{
					"inputs": [],
					"name": "stage2UnlockTime",
					"outputs": [
						{
							"internalType": "uint256",
							"name": "",
							"type": "uint256"
						}
					],
					"stateMutability": "view",
					"type": "function"
				},
				{
					"inputs": [],
					"name": "withdrawStage1",
					"outputs": [],
					"stateMutability": "nonpayable",
					"type": "function"
				},
				{
					"inputs": [],
					"name": "withdrawStage2",
					"outputs": [],
					"stateMutability": "nonpayable",
					"type": "function"
				}
			],
			"devdoc": {
				"kind": "dev",
				"methods": {},
				"version": 1
			},
			"evm": {
				"assembly": "    /* \"level-1/ApiTest.sol\":58:2430  contract ApiTest{... */\n  mstore(0x40, 0x80)\n    /* \"level-1/ApiTest.sol\":1040:1319  constructor(uint _stage1Lock, uint _stage2Lock) {... */\n  callvalue\n  dup1\n  iszero\n  tag_1\n  jumpi\n  0x00\n  dup1\n  revert\ntag_1:\n  pop\n  mload(0x40)\n  sub(codesize, bytecodeSize)\n  dup1\n  bytecodeSize\n  dup4\n  codecopy\n  dup2\n  dup2\n  add\n  0x40\n  mstore\n  dup2\n  add\n  swap1\n  tag_2\n  swap2\n  swap1\n  tag_3\n  jump\t// in\ntag_2:\n    /* \"level-1/ApiTest.sol\":1107:1117  msg.sender */\n  caller\n    /* \"level-1/ApiTest.sol\":1099:1104  owner */\n  0x02\n  0x00\n    /* \"level-1/ApiTest.sol\":1099:1117  owner = msg.sender */\n  0x0100\n  exp\n  dup2\n  sload\n  dup2\n  0xffffffffffffffffffffffffffffffffffffffff\n  mul\n  not\n  and\n  swap1\n  dup4\n  0xffffffffffffffffffffffffffffffffffffffff\n  and\n  mul\n  or\n  swap1\n  sstore\n  pop\n    /* \"level-1/ApiTest.sol\":1179:1185  1 days */\n  0x015180\n    /* \"level-1/ApiTest.sol\":1165:1176  _stage1Lock */\n  dup3\n    /* \"level-1/ApiTest.sol\":1165:1185  _stage1Lock * 1 days */\n  tag_6\n  swap2\n  swap1\n  tag_7\n  jump\t// in\ntag_6:\n    /* \"level-1/ApiTest.sol\":1147:1162  block.timestamp */\n  timestamp\n    /* \"level-1/ApiTest.sol\":1147:1185  block.timestamp + _stage1Lock * 1 days */\n  tag_8\n  swap2\n  swap1\n  tag_9\n  jump\t// in\ntag_8:\n    /* \"level-1/ApiTest.sol\":1128:1144  stage1UnlockTime */\n  0x00\n    /* \"level-1/ApiTest.sol\":1128:1185  stage1UnlockTime = block.timestamp + _stage1Lock * 1 days */\n  dup2\n  swap1\n  sstore\n  pop\n    /* \"level-1/ApiTest.sol\":1276:1282  1 days */\n  0x015180\n    /* \"level-1/ApiTest.sol\":1262:1273  _stage2Lock */\n  dup2\n    /* \"level-1/ApiTest.sol\":1262:1282  _stage2Lock * 1 days */\n  tag_10\n  swap2\n  swap1\n  tag_7\n  jump\t// in\ntag_10:\n    /* \"level-1/ApiTest.sol\":1244:1259  block.timestamp */\n  timestamp\n    /* \"level-1/ApiTest.sol\":1244:1282  block.timestamp + _stage2Lock * 1 days */\n  tag_11\n  swap2\n  swap1\n  tag_9\n  jump\t// in\ntag_11:\n    /* \"level-1/ApiTest.sol\":1225:1241  stage2UnlockTime */\n  0x01\n    /* \"level-1/ApiTest.sol\":1225:1282  stage2UnlockTime = block.timestamp + _stage2Lock * 1 days */\n  dup2\n  swap1\n  sstore\n  pop\n    /* \"level-1/ApiTest.sol\":1040:1319  constructor(uint _stage1Lock, uint _stage2Lock) {... */\n  pop\n  pop\n    /* \"level-1/ApiTest.sol\":58:2430  contract ApiTest{... */\n  jump(tag_12)\n    /* \"#utility.yul\":88:205   */\ntag_14:\n    /* \"#utility.yul\":197:198   */\n  0x00\n    /* \"#utility.yul\":194:195   */\n  dup1\n    /* \"#utility.yul\":187:199   */\n  revert\n    /* \"#utility.yul\":334:411   */\ntag_16:\n    /* \"#utility.yul\":371:378   */\n  0x00\n    /* \"#utility.yul\":400:405   */\n  dup2\n    /* \"#utility.yul\":389:405   */\n  swap1\n  pop\n    /* \"#utility.yul\":334:411   */\n  swap2\n  swap1\n  pop\n  jump\t// out\n    /* \"#utility.yul\":417:539   */\ntag_17:\n    /* \"#utility.yul\":490:514   */\n  tag_26\n    /* \"#utility.yul\":508:513   */\n  dup2\n    /* \"#utility.yul\":490:514   */\n  tag_16\n  jump\t// in\ntag_26:\n    /* \"#utility.yul\":483:488   */\n  dup2\n    /* \"#utility.yul\":480:515   */\n  eq\n    /* \"#utility.yul\":470:533   */\n  tag_27\n  jumpi\n    /* \"#utility.yul\":529:530   */\n  0x00\n    /* \"#utility.yul\":526:527   */\n  dup1\n    /* \"#utility.yul\":519:531   */\n  revert\n    /* \"#utility.yul\":470:533   */\ntag_27:\n    /* \"#utility.yul\":417:539   */\n  pop\n  jump\t// out\n    /* \"#utility.yul\":545:688   */\ntag_18:\n    /* \"#utility.yul\":602:607   */\n  0x00\n    /* \"#utility.yul\":633:639   */\n  dup2\n    /* \"#utility.yul\":627:640   */\n  mload\n    /* \"#utility.yul\":618:640   */\n  swap1\n  pop\n    /* \"#utility.yul\":649:682   */\n  tag_29\n    /* \"#utility.yul\":676:681   */\n  dup2\n    /* \"#utility.yul\":649:682   */\n  tag_17\n  jump\t// in\ntag_29:\n    /* \"#utility.yul\":545:688   */\n  swap3\n  swap2\n  pop\n  pop\n  jump\t// out\n    /* \"#utility.yul\":694:1201   */\ntag_3:\n    /* \"#utility.yul\":773:779   */\n  0x00\n    /* \"#utility.yul\":781:787   */\n  dup1\n    /* \"#utility.yul\":830:832   */\n  0x40\n    /* \"#utility.yul\":818:827   */\n  dup4\n    /* \"#utility.yul\":809:816   */\n  dup6\n    /* \"#utility.yul\":805:828   */\n  sub\n    /* \"#utility.yul\":801:833   */\n  slt\n    /* \"#utility.yul\":798:917   */\n  iszero\n  tag_31\n  jumpi\n    /* \"#utility.yul\":836:915   */\n  tag_32\n  tag_14\n  jump\t// in\ntag_32:\n    /* \"#utility.yul\":798:917   */\ntag_31:\n    /* \"#utility.yul\":956:957   */\n  0x00\n    /* \"#utility.yul\":981:1045   */\n  tag_33\n    /* \"#utility.yul\":1037:1044   */\n  dup6\n    /* \"#utility.yul\":1028:1034   */\n  dup3\n    /* \"#utility.yul\":1017:1026   */\n  dup7\n    /* \"#utility.yul\":1013:1035   */\n  add\n    /* \"#utility.yul\":981:1045   */\n  tag_18\n  jump\t// in\ntag_33:\n    /* \"#utility.yul\":971:1045   */\n  swap3\n  pop\n    /* \"#utility.yul\":927:1055   */\n  pop\n    /* \"#utility.yul\":1094:1096   */\n  0x20\n    /* \"#utility.yul\":1120:1184   */\n  tag_34\n    /* \"#utility.yul\":1176:1183   */\n  dup6\n    /* \"#utility.yul\":1167:1173   */\n  dup3\n    /* \"#utility.yul\":1156:1165   */\n  dup7\n    /* \"#utility.yul\":1152:1174   */\n  add\n    /* \"#utility.yul\":1120:1184   */\n  tag_18\n  jump\t// in\ntag_34:\n    /* \"#utility.yul\":1110:1184   */\n  swap2\n  pop\n    /* \"#utility.yul\":1065:1194   */\n  pop\n    /* \"#utility.yul\":694:1201   */\n  swap3\n  pop\n  swap3\n  swap1\n  pop\n  jump\t// out\n    /* \"#utility.yul\":1207:1387   */\ntag_19:\n    /* \"#utility.yul\":1255:1332   */\n  0x4e487b7100000000000000000000000000000000000000000000000000000000\n    /* \"#utility.yul\":1252:1253   */\n  0x00\n    /* \"#utility.yul\":1245:1333   */\n  mstore\n    /* \"#utility.yul\":1352:1356   */\n  0x11\n    /* \"#utility.yul\":1349:1350   */\n  0x04\n    /* \"#utility.yul\":1342:1357   */\n  mstore\n    /* \"#utility.yul\":1376:1380   */\n  0x24\n    /* \"#utility.yul\":1373:1374   */\n  0x00\n    /* \"#utility.yul\":1366:1381   */\n  revert\n    /* \"#utility.yul\":1393:1803   */\ntag_7:\n    /* \"#utility.yul\":1433:1440   */\n  0x00\n    /* \"#utility.yul\":1456:1476   */\n  tag_37\n    /* \"#utility.yul\":1474:1475   */\n  dup3\n    /* \"#utility.yul\":1456:1476   */\n  tag_16\n  jump\t// in\ntag_37:\n    /* \"#utility.yul\":1451:1476   */\n  swap2\n  pop\n    /* \"#utility.yul\":1490:1510   */\n  tag_38\n    /* \"#utility.yul\":1508:1509   */\n  dup4\n    /* \"#utility.yul\":1490:1510   */\n  tag_16\n  jump\t// in\ntag_38:\n    /* \"#utility.yul\":1485:1510   */\n  swap3\n  pop\n    /* \"#utility.yul\":1545:1546   */\n  dup3\n    /* \"#utility.yul\":1542:1543   */\n  dup3\n    /* \"#utility.yul\":1538:1547   */\n  mul\n    /* \"#utility.yul\":1567:1597   */\n  tag_39\n    /* \"#utility.yul\":1585:1596   */\n  dup2\n    /* \"#utility.yul\":1567:1597   */\n  tag_16\n  jump\t// in\ntag_39:\n    /* \"#utility.yul\":1556:1597   */\n  swap2\n  pop\n    /* \"#utility.yul\":1746:1747   */\n  dup3\n    /* \"#utility.yul\":1737:1744   */\n  dup3\n    /* \"#utility.yul\":1733:1748   */\n  div\n    /* \"#utility.yul\":1730:1731   */\n  dup5\n    /* \"#utility.yul\":1727:1749   */\n  eq\n    /* \"#utility.yul\":1707:1708   */\n  dup4\n    /* \"#utility.yul\":1700:1709   */\n  iszero\n    /* \"#utility.yul\":1680:1763   */\n  or\n    /* \"#utility.yul\":1657:1796   */\n  tag_40\n  jumpi\n    /* \"#utility.yul\":1776:1794   */\n  tag_41\n  tag_19\n  jump\t// in\ntag_41:\n    /* \"#utility.yul\":1657:1796   */\ntag_40:\n    /* \"#utility.yul\":1441:1803   */\n  pop\n    /* \"#utility.yul\":1393:1803   */\n  swap3\n  swap2\n  pop\n  pop\n  jump\t// out\n    /* \"#utility.yul\":1809:2000   */\ntag_9:\n    /* \"#utility.yul\":1849:1852   */\n  0x00\n    /* \"#utility.yul\":1868:1888   */\n  tag_43\n    /* \"#utility.yul\":1886:1887   */\n  dup3\n    /* \"#utility.yul\":1868:1888   */\n  tag_16\n  jump\t// in\ntag_43:\n    /* \"#utility.yul\":1863:1888   */\n  swap2\n  pop\n    /* \"#utility.yul\":1902:1922   */\n  tag_44\n    /* \"#utility.yul\":1920:1921   */\n  dup4\n    /* \"#utility.yul\":1902:1922   */\n  tag_16\n  jump\t// in\ntag_44:\n    /* \"#utility.yul\":1897:1922   */\n  swap3\n  pop\n    /* \"#utility.yul\":1945:1946   */\n  dup3\n    /* \"#utility.yul\":1942:1943   */\n  dup3\n    /* \"#utility.yul\":1938:1947   */\n  add\n    /* \"#utility.yul\":1931:1947   */\n  swap1\n  pop\n    /* \"#utility.yul\":1966:1969   */\n  dup1\n    /* \"#utility.yul\":1963:1964   */\n  dup3\n    /* \"#utility.yul\":1960:1970   */\n  gt\n    /* \"#utility.yul\":1957:1993   */\n  iszero\n  tag_45\n  jumpi\n    /* \"#utility.yul\":1973:1991   */\n  tag_46\n  tag_19\n  jump\t// in\ntag_46:\n    /* \"#utility.yul\":1957:1993   */\ntag_45:\n    /* \"#utility.yul\":1809:2000   */\n  swap3\n  swap2\n  pop\n  pop\n  jump\t// out\n    /* \"level-1/ApiTest.sol\":58:2430  contract ApiTest{... */\ntag_12:\n  dataSize(sub_0)\n  dup1\n  dataOffset(sub_0)\n  0x00\n  codecopy\n  0x00\n  return\nstop\n\nsub_0: assembly {\n        /* \"level-1/ApiTest.sol\":58:2430  contract ApiTest{... */\n      mstore(0x40, 0x80)\n      callvalue\n      dup1\n      iszero\n      tag_1\n      jumpi\n      0x00\n      dup1\n      revert\n    tag_1:\n      pop\n      jumpi(tag_2, lt(calldatasize, 0x04))\n      shr(0xe0, calldataload(0x00))\n      dup1\n      0x8da5cb5b\n      gt\n      tag_14\n      jumpi\n      dup1\n      0x8da5cb5b\n      eq\n      tag_8\n      jumpi\n      dup1\n      0x9fcb6c61\n      eq\n      tag_9\n      jumpi\n      dup1\n      0xc0821da3\n      eq\n      tag_10\n      jumpi\n      dup1\n      0xd1a82a9d\n      eq\n      tag_11\n      jumpi\n      dup1\n      0xdaee6838\n      eq\n      tag_12\n      jumpi\n      dup1\n      0xfba0e4bb\n      eq\n      tag_13\n      jumpi\n      jump(tag_2)\n    tag_14:\n      dup1\n      0x42a6e672\n      eq\n      tag_3\n      jumpi\n      dup1\n      0x447a06f5\n      eq\n      tag_4\n      jumpi\n      dup1\n      0x68efabc0\n      eq\n      tag_5\n      jumpi\n      dup1\n      0x70d1c571\n      eq\n      tag_6\n      jumpi\n      dup1\n      0x889ec605\n      eq\n      tag_7\n      jumpi\n    tag_2:\n      0x00\n      dup1\n      revert\n        /* \"level-1/ApiTest.sol\":614:762  function encodeData(uint price,string calldata name)public view returns(bytes memory){... */\n    tag_3:\n      tag_15\n      0x04\n      dup1\n      calldatasize\n      sub\n      dup2\n      add\n      swap1\n      tag_16\n      swap2\n      swap1\n      tag_17\n      jump\t// in\n    tag_16:\n      tag_18\n      jump\t// in\n    tag_15:\n      mload(0x40)\n      tag_19\n      swap2\n      swap1\n      tag_20\n      jump\t// in\n    tag_19:\n      mload(0x40)\n      dup1\n      swap2\n      sub\n      swap1\n      return\n        /* \"level-1/ApiTest.sol\":795:931  function decodeData(bytes calldata data)public pure returns(uint ,string memory){... */\n    tag_4:\n      tag_21\n      0x04\n      dup1\n      calldatasize\n      sub\n      dup2\n      add\n      swap1\n      tag_22\n      swap2\n      swap1\n      tag_23\n      jump\t// in\n    tag_22:\n      tag_24\n      jump\t// in\n    tag_21:\n      mload(0x40)\n      tag_25\n      swap3\n      swap2\n      swap1\n      tag_26\n      jump\t// in\n    tag_25:\n      mload(0x40)\n      dup1\n      swap2\n      sub\n      swap1\n      return\n        /* \"level-1/ApiTest.sol\":1566:1801  function withdrawStage2() public {... */\n    tag_5:\n      tag_27\n      tag_28\n      jump\t// in\n    tag_27:\n      stop\n        /* \"level-1/ApiTest.sol\":939:967  uint public stage1UnlockTime */\n    tag_6:\n      tag_29\n      tag_30\n      jump\t// in\n    tag_29:\n      mload(0x40)\n      tag_31\n      swap2\n      swap1\n      tag_32\n      jump\t// in\n    tag_31:\n      mload(0x40)\n      dup1\n      swap2\n      sub\n      swap1\n      return\n        /* \"level-1/ApiTest.sol\":1325:1560  function withdrawStage1() public {... */\n    tag_7:\n      tag_33\n      tag_34\n      jump\t// in\n    tag_33:\n      stop\n        /* \"level-1/ApiTest.sol\":1011:1031  address public owner */\n    tag_8:\n      tag_35\n      tag_36\n      jump\t// in\n    tag_35:\n      mload(0x40)\n      tag_37\n      swap2\n      swap1\n      tag_38\n      jump\t// in\n    tag_37:\n      mload(0x40)\n      dup1\n      swap2\n      sub\n      swap1\n      return\n        /* \"level-1/ApiTest.sol\":975:1003  uint public stage2UnlockTime */\n    tag_9:\n      tag_39\n      tag_40\n      jump\t// in\n    tag_39:\n      mload(0x40)\n      tag_41\n      swap2\n      swap1\n      tag_32\n      jump\t// in\n    tag_41:\n      mload(0x40)\n      dup1\n      swap2\n      sub\n      swap1\n      return\n        /* \"level-1/ApiTest.sol\":239:326  function getCurTime()public view returns(uint){... */\n    tag_10:\n      tag_42\n      tag_43\n      jump\t// in\n    tag_42:\n      mload(0x40)\n      tag_44\n      swap2\n      swap1\n      tag_32\n      jump\t// in\n    tag_44:\n      mload(0x40)\n      dup1\n      swap2\n      sub\n      swap1\n      return\n        /* \"level-1/ApiTest.sol\":355:446  function getCoinbase() public view returns(address){... */\n    tag_11:\n      tag_45\n      tag_46\n      jump\t// in\n    tag_45:\n      mload(0x40)\n      tag_47\n      swap2\n      swap1\n      tag_38\n      jump\t// in\n    tag_47:\n      mload(0x40)\n      dup1\n      swap2\n      sub\n      swap1\n      return\n        /* \"level-1/ApiTest.sol\":480:567  function getCurGasPrice()public view returns(uint){... */\n    tag_12:\n      tag_48\n      tag_49\n      jump\t// in\n    tag_48:\n      mload(0x40)\n      tag_50\n      swap2\n      swap1\n      tag_32\n      jump\t// in\n    tag_50:\n      mload(0x40)\n      dup1\n      swap2\n      sub\n      swap1\n      return\n        /* \"level-1/ApiTest.sol\":119:203  function getBlockNo()public view returns(uint){... */\n    tag_13:\n      tag_51\n      tag_52\n      jump\t// in\n    tag_51:\n      mload(0x40)\n      tag_53\n      swap2\n      swap1\n      tag_32\n      jump\t// in\n    tag_53:\n      mload(0x40)\n      dup1\n      swap2\n      sub\n      swap1\n      return\n        /* \"level-1/ApiTest.sol\":614:762  function encodeData(uint price,string calldata name)public view returns(bytes memory){... */\n    tag_18:\n        /* \"level-1/ApiTest.sol\":686:698  bytes memory */\n      0x60\n        /* \"level-1/ApiTest.sol\":728:733  price */\n      dup4\n        /* \"level-1/ApiTest.sol\":734:738  name */\n      dup4\n      dup4\n        /* \"level-1/ApiTest.sol\":748:752  this */\n      address\n        /* \"level-1/ApiTest.sol\":717:754  abi.encode(price,name, address(this)) */\n      add(0x20, mload(0x40))\n      tag_55\n      swap5\n      swap4\n      swap3\n      swap2\n      swap1\n      tag_56\n      jump\t// in\n    tag_55:\n      mload(0x40)\n      0x20\n      dup2\n      dup4\n      sub\n      sub\n      dup2\n      mstore\n      swap1\n      0x40\n      mstore\n        /* \"level-1/ApiTest.sol\":710:754  return abi.encode(price,name, address(this)) */\n      swap1\n      pop\n        /* \"level-1/ApiTest.sol\":614:762  function encodeData(uint price,string calldata name)public view returns(bytes memory){... */\n      swap4\n      swap3\n      pop\n      pop\n      pop\n      jump\t// out\n        /* \"level-1/ApiTest.sol\":795:931  function decodeData(bytes calldata data)public pure returns(uint ,string memory){... */\n    tag_24:\n        /* \"level-1/ApiTest.sol\":855:859  uint */\n      0x00\n        /* \"level-1/ApiTest.sol\":861:874  string memory */\n      0x60\n        /* \"level-1/ApiTest.sol\":904:908  data */\n      dup4\n      dup4\n        /* \"level-1/ApiTest.sol\":893:923  abi.decode(data,(uint,string)) */\n      dup2\n      add\n      swap1\n      tag_58\n      swap2\n      swap1\n      tag_59\n      jump\t// in\n    tag_58:\n        /* \"level-1/ApiTest.sol\":886:923  return abi.decode(data,(uint,string)) */\n      swap2\n      pop\n      swap2\n      pop\n        /* \"level-1/ApiTest.sol\":795:931  function decodeData(bytes calldata data)public pure returns(uint ,string memory){... */\n      swap3\n      pop\n      swap3\n      swap1\n      pop\n      jump\t// out\n        /* \"level-1/ApiTest.sol\":1566:1801  function withdrawStage2() public {... */\n    tag_28:\n        /* \"level-1/ApiTest.sol\":1637:1653  stage2UnlockTime */\n      sload(0x01)\n        /* \"level-1/ApiTest.sol\":1618:1633  block.timestamp */\n      timestamp\n        /* \"level-1/ApiTest.sol\":1618:1653  block.timestamp >= stage2UnlockTime */\n      lt\n      iszero\n        /* \"level-1/ApiTest.sol\":1610:1683  require(block.timestamp >= stage2UnlockTime, \"Stage 2 funds are locked.\") */\n      tag_61\n      jumpi\n      mload(0x40)\n      0x08c379a000000000000000000000000000000000000000000000000000000000\n      dup2\n      mstore\n      0x04\n      add\n      tag_62\n      swap1\n      tag_63\n      jump\t// in\n    tag_62:\n      mload(0x40)\n      dup1\n      swap2\n      sub\n      swap1\n      revert\n    tag_61:\n        /* \"level-1/ApiTest.sol\":1716:1721  owner */\n      0x02\n      0x00\n      swap1\n      sload\n      swap1\n      0x0100\n      exp\n      swap1\n      div\n      0xffffffffffffffffffffffffffffffffffffffff\n      and\n        /* \"level-1/ApiTest.sol\":1702:1721  msg.sender == owner */\n      0xffffffffffffffffffffffffffffffffffffffff\n      and\n        /* \"level-1/ApiTest.sol\":1702:1712  msg.sender */\n      caller\n        /* \"level-1/ApiTest.sol\":1702:1721  msg.sender == owner */\n      0xffffffffffffffffffffffffffffffffffffffff\n      and\n      eq\n        /* \"level-1/ApiTest.sol\":1694:1750  require(msg.sender == owner, \"Only owner can withdraw.\") */\n      tag_64\n      jumpi\n      mload(0x40)\n      0x08c379a000000000000000000000000000000000000000000000000000000000\n      dup2\n      mstore\n      0x04\n      add\n      tag_65\n      swap1\n      tag_66\n      jump\t// in\n    tag_65:\n      mload(0x40)\n      dup1\n      swap2\n      sub\n      swap1\n      revert\n    tag_64:\n        /* \"level-1/ApiTest.sol\":1566:1801  function withdrawStage2() public {... */\n      jump\t// out\n        /* \"level-1/ApiTest.sol\":939:967  uint public stage1UnlockTime */\n    tag_30:\n      sload(0x00)\n      dup2\n      jump\t// out\n        /* \"level-1/ApiTest.sol\":1325:1560  function withdrawStage1() public {... */\n    tag_34:\n        /* \"level-1/ApiTest.sol\":1396:1412  stage1UnlockTime */\n      sload(0x00)\n        /* \"level-1/ApiTest.sol\":1377:1392  block.timestamp */\n      timestamp\n        /* \"level-1/ApiTest.sol\":1377:1412  block.timestamp >= stage1UnlockTime */\n      lt\n      iszero\n        /* \"level-1/ApiTest.sol\":1369:1442  require(block.timestamp >= stage1UnlockTime, \"Stage 1 funds are locked.\") */\n      tag_68\n      jumpi\n      mload(0x40)\n      0x08c379a000000000000000000000000000000000000000000000000000000000\n      dup2\n      mstore\n      0x04\n      add\n      tag_69\n      swap1\n      tag_70\n      jump\t// in\n    tag_69:\n      mload(0x40)\n      dup1\n      swap2\n      sub\n      swap1\n      revert\n    tag_68:\n        /* \"level-1/ApiTest.sol\":1475:1480  owner */\n      0x02\n      0x00\n      swap1\n      sload\n      swap1\n      0x0100\n      exp\n      swap1\n      div\n      0xffffffffffffffffffffffffffffffffffffffff\n      and\n        /* \"level-1/ApiTest.sol\":1461:1480  msg.sender == owner */\n      0xffffffffffffffffffffffffffffffffffffffff\n      and\n        /* \"level-1/ApiTest.sol\":1461:1471  msg.sender */\n      caller\n        /* \"level-1/ApiTest.sol\":1461:1480  msg.sender == owner */\n      0xffffffffffffffffffffffffffffffffffffffff\n      and\n      eq\n        /* \"level-1/ApiTest.sol\":1453:1509  require(msg.sender == owner, \"Only owner can withdraw.\") */\n      tag_71\n      jumpi\n      mload(0x40)\n      0x08c379a000000000000000000000000000000000000000000000000000000000\n      dup2\n      mstore\n      0x04\n      add\n      tag_72\n      swap1\n      tag_66\n      jump\t// in\n    tag_72:\n      mload(0x40)\n      dup1\n      swap2\n      sub\n      swap1\n      revert\n    tag_71:\n        /* \"level-1/ApiTest.sol\":1325:1560  function withdrawStage1() public {... */\n      jump\t// out\n        /* \"level-1/ApiTest.sol\":1011:1031  address public owner */\n    tag_36:\n      0x02\n      0x00\n      swap1\n      sload\n      swap1\n      0x0100\n      exp\n      swap1\n      div\n      0xffffffffffffffffffffffffffffffffffffffff\n      and\n      dup2\n      jump\t// out\n        /* \"level-1/ApiTest.sol\":975:1003  uint public stage2UnlockTime */\n    tag_40:\n      sload(0x01)\n      dup2\n      jump\t// out\n        /* \"level-1/ApiTest.sol\":239:326  function getCurTime()public view returns(uint){... */\n    tag_43:\n        /* \"level-1/ApiTest.sol\":280:284  uint */\n      0x00\n        /* \"level-1/ApiTest.sol\":303:318  block.timestamp */\n      timestamp\n        /* \"level-1/ApiTest.sol\":296:318  return block.timestamp */\n      swap1\n      pop\n        /* \"level-1/ApiTest.sol\":239:326  function getCurTime()public view returns(uint){... */\n      swap1\n      jump\t// out\n        /* \"level-1/ApiTest.sol\":355:446  function getCoinbase() public view returns(address){... */\n    tag_46:\n        /* \"level-1/ApiTest.sol\":398:405  address */\n      0x00\n        /* \"level-1/ApiTest.sol\":424:438  block.coinbase */\n      coinbase\n        /* \"level-1/ApiTest.sol\":417:438  return block.coinbase */\n      swap1\n      pop\n        /* \"level-1/ApiTest.sol\":355:446  function getCoinbase() public view returns(address){... */\n      swap1\n      jump\t// out\n        /* \"level-1/ApiTest.sol\":480:567  function getCurGasPrice()public view returns(uint){... */\n    tag_49:\n        /* \"level-1/ApiTest.sol\":525:529  uint */\n      0x00\n        /* \"level-1/ApiTest.sol\":548:559  tx.gasprice */\n      gasprice\n        /* \"level-1/ApiTest.sol\":541:559  return tx.gasprice */\n      swap1\n      pop\n        /* \"level-1/ApiTest.sol\":480:567  function getCurGasPrice()public view returns(uint){... */\n      swap1\n      jump\t// out\n        /* \"level-1/ApiTest.sol\":119:203  function getBlockNo()public view returns(uint){... */\n    tag_52:\n        /* \"level-1/ApiTest.sol\":160:164  uint */\n      0x00\n        /* \"level-1/ApiTest.sol\":183:195  block.number */\n      number\n        /* \"level-1/ApiTest.sol\":176:195  return block.number */\n      swap1\n      pop\n        /* \"level-1/ApiTest.sol\":119:203  function getBlockNo()public view returns(uint){... */\n      swap1\n      jump\t// out\n        /* \"#utility.yul\":7:82   */\n    tag_77:\n        /* \"#utility.yul\":40:46   */\n      0x00\n        /* \"#utility.yul\":73:75   */\n      0x40\n        /* \"#utility.yul\":67:76   */\n      mload\n        /* \"#utility.yul\":57:76   */\n      swap1\n      pop\n        /* \"#utility.yul\":7:82   */\n      swap1\n      jump\t// out\n        /* \"#utility.yul\":88:205   */\n    tag_78:\n        /* \"#utility.yul\":197:198   */\n      0x00\n        /* \"#utility.yul\":194:195   */\n      dup1\n        /* \"#utility.yul\":187:199   */\n      revert\n        /* \"#utility.yul\":211:328   */\n    tag_79:\n        /* \"#utility.yul\":320:321   */\n      0x00\n        /* \"#utility.yul\":317:318   */\n      dup1\n        /* \"#utility.yul\":310:322   */\n      revert\n        /* \"#utility.yul\":334:411   */\n    tag_80:\n        /* \"#utility.yul\":371:378   */\n      0x00\n        /* \"#utility.yul\":400:405   */\n      dup2\n        /* \"#utility.yul\":389:405   */\n      swap1\n      pop\n        /* \"#utility.yul\":334:411   */\n      swap2\n      swap1\n      pop\n      jump\t// out\n        /* \"#utility.yul\":417:539   */\n    tag_81:\n        /* \"#utility.yul\":490:514   */\n      tag_121\n        /* \"#utility.yul\":508:513   */\n      dup2\n        /* \"#utility.yul\":490:514   */\n      tag_80\n      jump\t// in\n    tag_121:\n        /* \"#utility.yul\":483:488   */\n      dup2\n        /* \"#utility.yul\":480:515   */\n      eq\n        /* \"#utility.yul\":470:533   */\n      tag_122\n      jumpi\n        /* \"#utility.yul\":529:530   */\n      0x00\n        /* \"#utility.yul\":526:527   */\n      dup1\n        /* \"#utility.yul\":519:531   */\n      revert\n        /* \"#utility.yul\":470:533   */\n    tag_122:\n        /* \"#utility.yul\":417:539   */\n      pop\n      jump\t// out\n        /* \"#utility.yul\":545:684   */\n    tag_82:\n        /* \"#utility.yul\":591:596   */\n      0x00\n        /* \"#utility.yul\":629:635   */\n      dup2\n        /* \"#utility.yul\":616:636   */\n      calldataload\n        /* \"#utility.yul\":607:636   */\n      swap1\n      pop\n        /* \"#utility.yul\":645:678   */\n      tag_124\n        /* \"#utility.yul\":672:677   */\n      dup2\n        /* \"#utility.yul\":645:678   */\n      tag_81\n      jump\t// in\n    tag_124:\n        /* \"#utility.yul\":545:684   */\n      swap3\n      swap2\n      pop\n      pop\n      jump\t// out\n        /* \"#utility.yul\":690:807   */\n    tag_83:\n        /* \"#utility.yul\":799:800   */\n      0x00\n        /* \"#utility.yul\":796:797   */\n      dup1\n        /* \"#utility.yul\":789:801   */\n      revert\n        /* \"#utility.yul\":813:930   */\n    tag_84:\n        /* \"#utility.yul\":922:923   */\n      0x00\n        /* \"#utility.yul\":919:920   */\n      dup1\n        /* \"#utility.yul\":912:924   */\n      revert\n        /* \"#utility.yul\":936:1053   */\n    tag_85:\n        /* \"#utility.yul\":1045:1046   */\n      0x00\n        /* \"#utility.yul\":1042:1043   */\n      dup1\n        /* \"#utility.yul\":1035:1047   */\n      revert\n        /* \"#utility.yul\":1073:1626   */\n    tag_86:\n        /* \"#utility.yul\":1131:1139   */\n      0x00\n        /* \"#utility.yul\":1141:1147   */\n      dup1\n        /* \"#utility.yul\":1191:1194   */\n      dup4\n        /* \"#utility.yul\":1184:1188   */\n      0x1f\n        /* \"#utility.yul\":1176:1182   */\n      dup5\n        /* \"#utility.yul\":1172:1189   */\n      add\n        /* \"#utility.yul\":1168:1195   */\n      slt\n        /* \"#utility.yul\":1158:1280   */\n      tag_129\n      jumpi\n        /* \"#utility.yul\":1199:1278   */\n      tag_130\n      tag_83\n      jump\t// in\n    tag_130:\n        /* \"#utility.yul\":1158:1280   */\n    tag_129:\n        /* \"#utility.yul\":1312:1318   */\n      dup3\n        /* \"#utility.yul\":1299:1319   */\n      calldataload\n        /* \"#utility.yul\":1289:1319   */\n      swap1\n      pop\n        /* \"#utility.yul\":1342:1360   */\n      0xffffffffffffffff\n        /* \"#utility.yul\":1334:1340   */\n      dup2\n        /* \"#utility.yul\":1331:1361   */\n      gt\n        /* \"#utility.yul\":1328:1445   */\n      iszero\n      tag_131\n      jumpi\n        /* \"#utility.yul\":1364:1443   */\n      tag_132\n      tag_84\n      jump\t// in\n    tag_132:\n        /* \"#utility.yul\":1328:1445   */\n    tag_131:\n        /* \"#utility.yul\":1478:1482   */\n      0x20\n        /* \"#utility.yul\":1470:1476   */\n      dup4\n        /* \"#utility.yul\":1466:1483   */\n      add\n        /* \"#utility.yul\":1454:1483   */\n      swap2\n      pop\n        /* \"#utility.yul\":1532:1535   */\n      dup4\n        /* \"#utility.yul\":1524:1528   */\n      0x01\n        /* \"#utility.yul\":1516:1522   */\n      dup3\n        /* \"#utility.yul\":1512:1529   */\n      mul\n        /* \"#utility.yul\":1502:1510   */\n      dup4\n        /* \"#utility.yul\":1498:1530   */\n      add\n        /* \"#utility.yul\":1495:1536   */\n      gt\n        /* \"#utility.yul\":1492:1620   */\n      iszero\n      tag_133\n      jumpi\n        /* \"#utility.yul\":1539:1618   */\n      tag_134\n      tag_85\n      jump\t// in\n    tag_134:\n        /* \"#utility.yul\":1492:1620   */\n    tag_133:\n        /* \"#utility.yul\":1073:1626   */\n      swap3\n      pop\n      swap3\n      swap1\n      pop\n      jump\t// out\n        /* \"#utility.yul\":1632:2306   */\n    tag_17:\n        /* \"#utility.yul\":1712:1718   */\n      0x00\n        /* \"#utility.yul\":1720:1726   */\n      dup1\n        /* \"#utility.yul\":1728:1734   */\n      0x00\n        /* \"#utility.yul\":1777:1779   */\n      0x40\n        /* \"#utility.yul\":1765:1774   */\n      dup5\n        /* \"#utility.yul\":1756:1763   */\n      dup7\n        /* \"#utility.yul\":1752:1775   */\n      sub\n        /* \"#utility.yul\":1748:1780   */\n      slt\n        /* \"#utility.yul\":1745:1864   */\n      iszero\n      tag_136\n      jumpi\n        /* \"#utility.yul\":1783:1862   */\n      tag_137\n      tag_78\n      jump\t// in\n    tag_137:\n        /* \"#utility.yul\":1745:1864   */\n    tag_136:\n        /* \"#utility.yul\":1903:1904   */\n      0x00\n        /* \"#utility.yul\":1928:1981   */\n      tag_138\n        /* \"#utility.yul\":1973:1980   */\n      dup7\n        /* \"#utility.yul\":1964:1970   */\n      dup3\n        /* \"#utility.yul\":1953:1962   */\n      dup8\n        /* \"#utility.yul\":1949:1971   */\n      add\n        /* \"#utility.yul\":1928:1981   */\n      tag_82\n      jump\t// in\n    tag_138:\n        /* \"#utility.yul\":1918:1981   */\n      swap4\n      pop\n        /* \"#utility.yul\":1874:1991   */\n      pop\n        /* \"#utility.yul\":2058:2060   */\n      0x20\n        /* \"#utility.yul\":2047:2056   */\n      dup5\n        /* \"#utility.yul\":2043:2061   */\n      add\n        /* \"#utility.yul\":2030:2062   */\n      calldataload\n        /* \"#utility.yul\":2089:2107   */\n      0xffffffffffffffff\n        /* \"#utility.yul\":2081:2087   */\n      dup2\n        /* \"#utility.yul\":2078:2108   */\n      gt\n        /* \"#utility.yul\":2075:2192   */\n      iszero\n      tag_139\n      jumpi\n        /* \"#utility.yul\":2111:2190   */\n      tag_140\n      tag_79\n      jump\t// in\n    tag_140:\n        /* \"#utility.yul\":2075:2192   */\n    tag_139:\n        /* \"#utility.yul\":2224:2289   */\n      tag_141\n        /* \"#utility.yul\":2281:2288   */\n      dup7\n        /* \"#utility.yul\":2272:2278   */\n      dup3\n        /* \"#utility.yul\":2261:2270   */\n      dup8\n        /* \"#utility.yul\":2257:2279   */\n      add\n        /* \"#utility.yul\":2224:2289   */\n      tag_86\n      jump\t// in\n    tag_141:\n        /* \"#utility.yul\":2206:2289   */\n      swap3\n      pop\n      swap3\n      pop\n        /* \"#utility.yul\":2001:2299   */\n      pop\n        /* \"#utility.yul\":1632:2306   */\n      swap3\n      pop\n      swap3\n      pop\n      swap3\n      jump\t// out\n        /* \"#utility.yul\":2312:2410   */\n    tag_87:\n        /* \"#utility.yul\":2363:2369   */\n      0x00\n        /* \"#utility.yul\":2397:2402   */\n      dup2\n        /* \"#utility.yul\":2391:2403   */\n      mload\n        /* \"#utility.yul\":2381:2403   */\n      swap1\n      pop\n        /* \"#utility.yul\":2312:2410   */\n      swap2\n      swap1\n      pop\n      jump\t// out\n        /* \"#utility.yul\":2416:2584   */\n    tag_88:\n        /* \"#utility.yul\":2499:2510   */\n      0x00\n        /* \"#utility.yul\":2533:2539   */\n      dup3\n        /* \"#utility.yul\":2528:2531   */\n      dup3\n        /* \"#utility.yul\":2521:2540   */\n      mstore\n        /* \"#utility.yul\":2573:2577   */\n      0x20\n        /* \"#utility.yul\":2568:2571   */\n      dup3\n        /* \"#utility.yul\":2564:2578   */\n      add\n        /* \"#utility.yul\":2549:2578   */\n      swap1\n      pop\n        /* \"#utility.yul\":2416:2584   */\n      swap3\n      swap2\n      pop\n      pop\n      jump\t// out\n        /* \"#utility.yul\":2590:2729   */\n    tag_89:\n        /* \"#utility.yul\":2679:2685   */\n      dup3\n        /* \"#utility.yul\":2674:2677   */\n      dup2\n        /* \"#utility.yul\":2669:2672   */\n      dup4\n        /* \"#utility.yul\":2663:2686   */\n      mcopy\n        /* \"#utility.yul\":2720:2721   */\n      0x00\n        /* \"#utility.yul\":2711:2717   */\n      dup4\n        /* \"#utility.yul\":2706:2709   */\n      dup4\n        /* \"#utility.yul\":2702:2718   */\n      add\n        /* \"#utility.yul\":2695:2722   */\n      mstore\n        /* \"#utility.yul\":2590:2729   */\n      pop\n      pop\n      pop\n      jump\t// out\n        /* \"#utility.yul\":2735:2837   */\n    tag_90:\n        /* \"#utility.yul\":2776:2782   */\n      0x00\n        /* \"#utility.yul\":2827:2829   */\n      0x1f\n        /* \"#utility.yul\":2823:2830   */\n      not\n        /* \"#utility.yul\":2818:2820   */\n      0x1f\n        /* \"#utility.yul\":2811:2816   */\n      dup4\n        /* \"#utility.yul\":2807:2821   */\n      add\n        /* \"#utility.yul\":2803:2831   */\n      and\n        /* \"#utility.yul\":2793:2831   */\n      swap1\n      pop\n        /* \"#utility.yul\":2735:2837   */\n      swap2\n      swap1\n      pop\n      jump\t// out\n        /* \"#utility.yul\":2843:3216   */\n    tag_91:\n        /* \"#utility.yul\":2929:2932   */\n      0x00\n        /* \"#utility.yul\":2957:2995   */\n      tag_147\n        /* \"#utility.yul\":2989:2994   */\n      dup3\n        /* \"#utility.yul\":2957:2995   */\n      tag_87\n      jump\t// in\n    tag_147:\n        /* \"#utility.yul\":3011:3081   */\n      tag_148\n        /* \"#utility.yul\":3074:3080   */\n      dup2\n        /* \"#utility.yul\":3069:3072   */\n      dup6\n        /* \"#utility.yul\":3011:3081   */\n      tag_88\n      jump\t// in\n    tag_148:\n        /* \"#utility.yul\":3004:3081   */\n      swap4\n      pop\n        /* \"#utility.yul\":3090:3155   */\n      tag_149\n        /* \"#utility.yul\":3148:3154   */\n      dup2\n        /* \"#utility.yul\":3143:3146   */\n      dup6\n        /* \"#utility.yul\":3136:3140   */\n      0x20\n        /* \"#utility.yul\":3129:3134   */\n      dup7\n        /* \"#utility.yul\":3125:3141   */\n      add\n        /* \"#utility.yul\":3090:3155   */\n      tag_89\n      jump\t// in\n    tag_149:\n        /* \"#utility.yul\":3180:3209   */\n      tag_150\n        /* \"#utility.yul\":3202:3208   */\n      dup2\n        /* \"#utility.yul\":3180:3209   */\n      tag_90\n      jump\t// in\n    tag_150:\n        /* \"#utility.yul\":3175:3178   */\n      dup5\n        /* \"#utility.yul\":3171:3210   */\n      add\n        /* \"#utility.yul\":3164:3210   */\n      swap2\n      pop\n        /* \"#utility.yul\":2933:3216   */\n      pop\n        /* \"#utility.yul\":2843:3216   */\n      swap3\n      swap2\n      pop\n      pop\n      jump\t// out\n        /* \"#utility.yul\":3222:3531   */\n    tag_20:\n        /* \"#utility.yul\":3333:3337   */\n      0x00\n        /* \"#utility.yul\":3371:3373   */\n      0x20\n        /* \"#utility.yul\":3360:3369   */\n      dup3\n        /* \"#utility.yul\":3356:3374   */\n      add\n        /* \"#utility.yul\":3348:3374   */\n      swap1\n      pop\n        /* \"#utility.yul\":3420:3429   */\n      dup2\n        /* \"#utility.yul\":3414:3418   */\n      dup2\n        /* \"#utility.yul\":3410:3430   */\n      sub\n        /* \"#utility.yul\":3406:3407   */\n      0x00\n        /* \"#utility.yul\":3395:3404   */\n      dup4\n        /* \"#utility.yul\":3391:3408   */\n      add\n        /* \"#utility.yul\":3384:3431   */\n      mstore\n        /* \"#utility.yul\":3448:3524   */\n      tag_152\n        /* \"#utility.yul\":3519:3523   */\n      dup2\n        /* \"#utility.yul\":3510:3516   */\n      dup5\n        /* \"#utility.yul\":3448:3524   */\n      tag_91\n      jump\t// in\n    tag_152:\n        /* \"#utility.yul\":3440:3524   */\n      swap1\n      pop\n        /* \"#utility.yul\":3222:3531   */\n      swap3\n      swap2\n      pop\n      pop\n      jump\t// out\n        /* \"#utility.yul\":3550:4102   */\n    tag_92:\n        /* \"#utility.yul\":3607:3615   */\n      0x00\n        /* \"#utility.yul\":3617:3623   */\n      dup1\n        /* \"#utility.yul\":3667:3670   */\n      dup4\n        /* \"#utility.yul\":3660:3664   */\n      0x1f\n        /* \"#utility.yul\":3652:3658   */\n      dup5\n        /* \"#utility.yul\":3648:3665   */\n      add\n        /* \"#utility.yul\":3644:3671   */\n      slt\n        /* \"#utility.yul\":3634:3756   */\n      tag_154\n      jumpi\n        /* \"#utility.yul\":3675:3754   */\n      tag_155\n      tag_83\n      jump\t// in\n    tag_155:\n        /* \"#utility.yul\":3634:3756   */\n    tag_154:\n        /* \"#utility.yul\":3788:3794   */\n      dup3\n        /* \"#utility.yul\":3775:3795   */\n      calldataload\n        /* \"#utility.yul\":3765:3795   */\n      swap1\n      pop\n        /* \"#utility.yul\":3818:3836   */\n      0xffffffffffffffff\n        /* \"#utility.yul\":3810:3816   */\n      dup2\n        /* \"#utility.yul\":3807:3837   */\n      gt\n        /* \"#utility.yul\":3804:3921   */\n      iszero\n      tag_156\n      jumpi\n        /* \"#utility.yul\":3840:3919   */\n      tag_157\n      tag_84\n      jump\t// in\n    tag_157:\n        /* \"#utility.yul\":3804:3921   */\n    tag_156:\n        /* \"#utility.yul\":3954:3958   */\n      0x20\n        /* \"#utility.yul\":3946:3952   */\n      dup4\n        /* \"#utility.yul\":3942:3959   */\n      add\n        /* \"#utility.yul\":3930:3959   */\n      swap2\n      pop\n        /* \"#utility.yul\":4008:4011   */\n      dup4\n        /* \"#utility.yul\":4000:4004   */\n      0x01\n        /* \"#utility.yul\":3992:3998   */\n      dup3\n        /* \"#utility.yul\":3988:4005   */\n      mul\n        /* \"#utility.yul\":3978:3986   */\n      dup4\n        /* \"#utility.yul\":3974:4006   */\n      add\n        /* \"#utility.yul\":3971:4012   */\n      gt\n        /* \"#utility.yul\":3968:4096   */\n      iszero\n      tag_158\n      jumpi\n        /* \"#utility.yul\":4015:4094   */\n      tag_159\n      tag_85\n      jump\t// in\n    tag_159:\n        /* \"#utility.yul\":3968:4096   */\n    tag_158:\n        /* \"#utility.yul\":3550:4102   */\n      swap3\n      pop\n      swap3\n      swap1\n      pop\n      jump\t// out\n        /* \"#utility.yul\":4108:4635   */\n    tag_23:\n        /* \"#utility.yul\":4178:4184   */\n      0x00\n        /* \"#utility.yul\":4186:4192   */\n      dup1\n        /* \"#utility.yul\":4235:4237   */\n      0x20\n        /* \"#utility.yul\":4223:4232   */\n      dup4\n        /* \"#utility.yul\":4214:4221   */\n      dup6\n        /* \"#utility.yul\":4210:4233   */\n      sub\n        /* \"#utility.yul\":4206:4238   */\n      slt\n        /* \"#utility.yul\":4203:4322   */\n      iszero\n      tag_161\n      jumpi\n        /* \"#utility.yul\":4241:4320   */\n      tag_162\n      tag_78\n      jump\t// in\n    tag_162:\n        /* \"#utility.yul\":4203:4322   */\n    tag_161:\n        /* \"#utility.yul\":4389:4390   */\n      0x00\n        /* \"#utility.yul\":4378:4387   */\n      dup4\n        /* \"#utility.yul\":4374:4391   */\n      add\n        /* \"#utility.yul\":4361:4392   */\n      calldataload\n        /* \"#utility.yul\":4419:4437   */\n      0xffffffffffffffff\n        /* \"#utility.yul\":4411:4417   */\n      dup2\n        /* \"#utility.yul\":4408:4438   */\n      gt\n        /* \"#utility.yul\":4405:4522   */\n      iszero\n      tag_163\n      jumpi\n        /* \"#utility.yul\":4441:4520   */\n      tag_164\n      tag_79\n      jump\t// in\n    tag_164:\n        /* \"#utility.yul\":4405:4522   */\n    tag_163:\n        /* \"#utility.yul\":4554:4618   */\n      tag_165\n        /* \"#utility.yul\":4610:4617   */\n      dup6\n        /* \"#utility.yul\":4601:4607   */\n      dup3\n        /* \"#utility.yul\":4590:4599   */\n      dup7\n        /* \"#utility.yul\":4586:4608   */\n      add\n        /* \"#utility.yul\":4554:4618   */\n      tag_92\n      jump\t// in\n    tag_165:\n        /* \"#utility.yul\":4536:4618   */\n      swap3\n      pop\n      swap3\n      pop\n        /* \"#utility.yul\":4332:4628   */\n      pop\n        /* \"#utility.yul\":4108:4635   */\n      swap3\n      pop\n      swap3\n      swap1\n      pop\n      jump\t// out\n        /* \"#utility.yul\":4641:4759   */\n    tag_93:\n        /* \"#utility.yul\":4728:4752   */\n      tag_167\n        /* \"#utility.yul\":4746:4751   */\n      dup2\n        /* \"#utility.yul\":4728:4752   */\n      tag_80\n      jump\t// in\n    tag_167:\n        /* \"#utility.yul\":4723:4726   */\n      dup3\n        /* \"#utility.yul\":4716:4753   */\n      mstore\n        /* \"#utility.yul\":4641:4759   */\n      pop\n      pop\n      jump\t// out\n        /* \"#utility.yul\":4765:4864   */\n    tag_94:\n        /* \"#utility.yul\":4817:4823   */\n      0x00\n        /* \"#utility.yul\":4851:4856   */\n      dup2\n        /* \"#utility.yul\":4845:4857   */\n      mload\n        /* \"#utility.yul\":4835:4857   */\n      swap1\n      pop\n        /* \"#utility.yul\":4765:4864   */\n      swap2\n      swap1\n      pop\n      jump\t// out\n        /* \"#utility.yul\":4870:5039   */\n    tag_95:\n        /* \"#utility.yul\":4954:4965   */\n      0x00\n        /* \"#utility.yul\":4988:4994   */\n      dup3\n        /* \"#utility.yul\":4983:4986   */\n      dup3\n        /* \"#utility.yul\":4976:4995   */\n      mstore\n        /* \"#utility.yul\":5028:5032   */\n      0x20\n        /* \"#utility.yul\":5023:5026   */\n      dup3\n        /* \"#utility.yul\":5019:5033   */\n      add\n        /* \"#utility.yul\":5004:5033   */\n      swap1\n      pop\n        /* \"#utility.yul\":4870:5039   */\n      swap3\n      swap2\n      pop\n      pop\n      jump\t// out\n        /* \"#utility.yul\":5045:5422   */\n    tag_96:\n        /* \"#utility.yul\":5133:5136   */\n      0x00\n        /* \"#utility.yul\":5161:5200   */\n      tag_171\n        /* \"#utility.yul\":5194:5199   */\n      dup3\n        /* \"#utility.yul\":5161:5200   */\n      tag_94\n      jump\t// in\n    tag_171:\n        /* \"#utility.yul\":5216:5287   */\n      tag_172\n        /* \"#utility.yul\":5280:5286   */\n      dup2\n        /* \"#utility.yul\":5275:5278   */\n      dup6\n        /* \"#utility.yul\":5216:5287   */\n      tag_95\n      jump\t// in\n    tag_172:\n        /* \"#utility.yul\":5209:5287   */\n      swap4\n      pop\n        /* \"#utility.yul\":5296:5361   */\n      tag_173\n        /* \"#utility.yul\":5354:5360   */\n      dup2\n        /* \"#utility.yul\":5349:5352   */\n      dup6\n        /* \"#utility.yul\":5342:5346   */\n      0x20\n        /* \"#utility.yul\":5335:5340   */\n      dup7\n        /* \"#utility.yul\":5331:5347   */\n      add\n        /* \"#utility.yul\":5296:5361   */\n      tag_89\n      jump\t// in\n    tag_173:\n        /* \"#utility.yul\":5386:5415   */\n      tag_174\n        /* \"#utility.yul\":5408:5414   */\n      dup2\n        /* \"#utility.yul\":5386:5415   */\n      tag_90\n      jump\t// in\n    tag_174:\n        /* \"#utility.yul\":5381:5384   */\n      dup5\n        /* \"#utility.yul\":5377:5416   */\n      add\n        /* \"#utility.yul\":5370:5416   */\n      swap2\n      pop\n        /* \"#utility.yul\":5137:5422   */\n      pop\n        /* \"#utility.yul\":5045:5422   */\n      swap3\n      swap2\n      pop\n      pop\n      jump\t// out\n        /* \"#utility.yul\":5428:5851   */\n    tag_26:\n        /* \"#utility.yul\":5569:5573   */\n      0x00\n        /* \"#utility.yul\":5607:5609   */\n      0x40\n        /* \"#utility.yul\":5596:5605   */\n      dup3\n        /* \"#utility.yul\":5592:5610   */\n      add\n        /* \"#utility.yul\":5584:5610   */\n      swap1\n      pop\n        /* \"#utility.yul\":5620:5691   */\n      tag_176\n        /* \"#utility.yul\":5688:5689   */\n      0x00\n        /* \"#utility.yul\":5677:5686   */\n      dup4\n        /* \"#utility.yul\":5673:5690   */\n      add\n        /* \"#utility.yul\":5664:5670   */\n      dup6\n        /* \"#utility.yul\":5620:5691   */\n      tag_93\n      jump\t// in\n    tag_176:\n        /* \"#utility.yul\":5738:5747   */\n      dup2\n        /* \"#utility.yul\":5732:5736   */\n      dup2\n        /* \"#utility.yul\":5728:5748   */\n      sub\n        /* \"#utility.yul\":5723:5725   */\n      0x20\n        /* \"#utility.yul\":5712:5721   */\n      dup4\n        /* \"#utility.yul\":5708:5726   */\n      add\n        /* \"#utility.yul\":5701:5749   */\n      mstore\n        /* \"#utility.yul\":5766:5844   */\n      tag_177\n        /* \"#utility.yul\":5839:5843   */\n      dup2\n        /* \"#utility.yul\":5830:5836   */\n      dup5\n        /* \"#utility.yul\":5766:5844   */\n      tag_96\n      jump\t// in\n    tag_177:\n        /* \"#utility.yul\":5758:5844   */\n      swap1\n      pop\n        /* \"#utility.yul\":5428:5851   */\n      swap4\n      swap3\n      pop\n      pop\n      pop\n      jump\t// out\n        /* \"#utility.yul\":5857:6079   */\n    tag_32:\n        /* \"#utility.yul\":5950:5954   */\n      0x00\n        /* \"#utility.yul\":5988:5990   */\n      0x20\n        /* \"#utility.yul\":5977:5986   */\n      dup3\n        /* \"#utility.yul\":5973:5991   */\n      add\n        /* \"#utility.yul\":5965:5991   */\n      swap1\n      pop\n        /* \"#utility.yul\":6001:6072   */\n      tag_179\n        /* \"#utility.yul\":6069:6070   */\n      0x00\n        /* \"#utility.yul\":6058:6067   */\n      dup4\n        /* \"#utility.yul\":6054:6071   */\n      add\n        /* \"#utility.yul\":6045:6051   */\n      dup5\n        /* \"#utility.yul\":6001:6072   */\n      tag_93\n      jump\t// in\n    tag_179:\n        /* \"#utility.yul\":5857:6079   */\n      swap3\n      swap2\n      pop\n      pop\n      jump\t// out\n        /* \"#utility.yul\":6085:6211   */\n    tag_97:\n        /* \"#utility.yul\":6122:6129   */\n      0x00\n        /* \"#utility.yul\":6162:6204   */\n      0xffffffffffffffffffffffffffffffffffffffff\n        /* \"#utility.yul\":6155:6160   */\n      dup3\n        /* \"#utility.yul\":6151:6205   */\n      and\n        /* \"#utility.yul\":6140:6205   */\n      swap1\n      pop\n        /* \"#utility.yul\":6085:6211   */\n      swap2\n      swap1\n      pop\n      jump\t// out\n        /* \"#utility.yul\":6217:6313   */\n    tag_98:\n        /* \"#utility.yul\":6254:6261   */\n      0x00\n        /* \"#utility.yul\":6283:6307   */\n      tag_182\n        /* \"#utility.yul\":6301:6306   */\n      dup3\n        /* \"#utility.yul\":6283:6307   */\n      tag_97\n      jump\t// in\n    tag_182:\n        /* \"#utility.yul\":6272:6307   */\n      swap1\n      pop\n        /* \"#utility.yul\":6217:6313   */\n      swap2\n      swap1\n      pop\n      jump\t// out\n        /* \"#utility.yul\":6319:6437   */\n    tag_99:\n        /* \"#utility.yul\":6406:6430   */\n      tag_184\n        /* \"#utility.yul\":6424:6429   */\n      dup2\n        /* \"#utility.yul\":6406:6430   */\n      tag_98\n      jump\t// in\n    tag_184:\n        /* \"#utility.yul\":6401:6404   */\n      dup3\n        /* \"#utility.yul\":6394:6431   */\n      mstore\n        /* \"#utility.yul\":6319:6437   */\n      pop\n      pop\n      jump\t// out\n        /* \"#utility.yul\":6443:6665   */\n    tag_38:\n        /* \"#utility.yul\":6536:6540   */\n      0x00\n        /* \"#utility.yul\":6574:6576   */\n      0x20\n        /* \"#utility.yul\":6563:6572   */\n      dup3\n        /* \"#utility.yul\":6559:6577   */\n      add\n        /* \"#utility.yul\":6551:6577   */\n      swap1\n      pop\n        /* \"#utility.yul\":6587:6658   */\n      tag_186\n        /* \"#utility.yul\":6655:6656   */\n      0x00\n        /* \"#utility.yul\":6644:6653   */\n      dup4\n        /* \"#utility.yul\":6640:6657   */\n      add\n        /* \"#utility.yul\":6631:6637   */\n      dup5\n        /* \"#utility.yul\":6587:6658   */\n      tag_99\n      jump\t// in\n    tag_186:\n        /* \"#utility.yul\":6443:6665   */\n      swap3\n      swap2\n      pop\n      pop\n      jump\t// out\n        /* \"#utility.yul\":6671:6819   */\n    tag_100:\n        /* \"#utility.yul\":6769:6775   */\n      dup3\n        /* \"#utility.yul\":6764:6767   */\n      dup2\n        /* \"#utility.yul\":6759:6762   */\n      dup4\n        /* \"#utility.yul\":6746:6776   */\n      calldatacopy\n        /* \"#utility.yul\":6810:6811   */\n      0x00\n        /* \"#utility.yul\":6801:6807   */\n      dup4\n        /* \"#utility.yul\":6796:6799   */\n      dup4\n        /* \"#utility.yul\":6792:6808   */\n      add\n        /* \"#utility.yul\":6785:6812   */\n      mstore\n        /* \"#utility.yul\":6671:6819   */\n      pop\n      pop\n      pop\n      jump\t// out\n        /* \"#utility.yul\":6849:7166   */\n    tag_101:\n        /* \"#utility.yul\":6947:6950   */\n      0x00\n        /* \"#utility.yul\":6968:7039   */\n      tag_189\n        /* \"#utility.yul\":7032:7038   */\n      dup4\n        /* \"#utility.yul\":7027:7030   */\n      dup6\n        /* \"#utility.yul\":6968:7039   */\n      tag_95\n      jump\t// in\n    tag_189:\n        /* \"#utility.yul\":6961:7039   */\n      swap4\n      pop\n        /* \"#utility.yul\":7049:7105   */\n      tag_190\n        /* \"#utility.yul\":7098:7104   */\n      dup4\n        /* \"#utility.yul\":7093:7096   */\n      dup6\n        /* \"#utility.yul\":7086:7091   */\n      dup5\n        /* \"#utility.yul\":7049:7105   */\n      tag_100\n      jump\t// in\n    tag_190:\n        /* \"#utility.yul\":7130:7159   */\n      tag_191\n        /* \"#utility.yul\":7152:7158   */\n      dup4\n        /* \"#utility.yul\":7130:7159   */\n      tag_90\n      jump\t// in\n    tag_191:\n        /* \"#utility.yul\":7125:7128   */\n      dup5\n        /* \"#utility.yul\":7121:7160   */\n      add\n        /* \"#utility.yul\":7114:7160   */\n      swap1\n      pop\n        /* \"#utility.yul\":6849:7166   */\n      swap4\n      swap3\n      pop\n      pop\n      pop\n      jump\t// out\n        /* \"#utility.yul\":7172:7725   */\n    tag_56:\n        /* \"#utility.yul\":7351:7355   */\n      0x00\n        /* \"#utility.yul\":7389:7391   */\n      0x60\n        /* \"#utility.yul\":7378:7387   */\n      dup3\n        /* \"#utility.yul\":7374:7392   */\n      add\n        /* \"#utility.yul\":7366:7392   */\n      swap1\n      pop\n        /* \"#utility.yul\":7402:7473   */\n      tag_193\n        /* \"#utility.yul\":7470:7471   */\n      0x00\n        /* \"#utility.yul\":7459:7468   */\n      dup4\n        /* \"#utility.yul\":7455:7472   */\n      add\n        /* \"#utility.yul\":7446:7452   */\n      dup8\n        /* \"#utility.yul\":7402:7473   */\n      tag_93\n      jump\t// in\n    tag_193:\n        /* \"#utility.yul\":7520:7529   */\n      dup2\n        /* \"#utility.yul\":7514:7518   */\n      dup2\n        /* \"#utility.yul\":7510:7530   */\n      sub\n        /* \"#utility.yul\":7505:7507   */\n      0x20\n        /* \"#utility.yul\":7494:7503   */\n      dup4\n        /* \"#utility.yul\":7490:7508   */\n      add\n        /* \"#utility.yul\":7483:7531   */\n      mstore\n        /* \"#utility.yul\":7548:7636   */\n      tag_194\n        /* \"#utility.yul\":7631:7635   */\n      dup2\n        /* \"#utility.yul\":7622:7628   */\n      dup6\n        /* \"#utility.yul\":7614:7620   */\n      dup8\n        /* \"#utility.yul\":7548:7636   */\n      tag_101\n      jump\t// in\n    tag_194:\n        /* \"#utility.yul\":7540:7636   */\n      swap1\n      pop\n        /* \"#utility.yul\":7646:7718   */\n      tag_195\n        /* \"#utility.yul\":7714:7716   */\n      0x40\n        /* \"#utility.yul\":7703:7712   */\n      dup4\n        /* \"#utility.yul\":7699:7717   */\n      add\n        /* \"#utility.yul\":7690:7696   */\n      dup5\n        /* \"#utility.yul\":7646:7718   */\n      tag_99\n      jump\t// in\n    tag_195:\n        /* \"#utility.yul\":7172:7725   */\n      swap6\n      swap5\n      pop\n      pop\n      pop\n      pop\n      pop\n      jump\t// out\n        /* \"#utility.yul\":7731:7848   */\n    tag_102:\n        /* \"#utility.yul\":7840:7841   */\n      0x00\n        /* \"#utility.yul\":7837:7838   */\n      dup1\n        /* \"#utility.yul\":7830:7842   */\n      revert\n        /* \"#utility.yul\":7854:8034   */\n    tag_103:\n        /* \"#utility.yul\":7902:7979   */\n      0x4e487b7100000000000000000000000000000000000000000000000000000000\n        /* \"#utility.yul\":7899:7900   */\n      0x00\n        /* \"#utility.yul\":7892:7980   */\n      mstore\n        /* \"#utility.yul\":7999:8003   */\n      0x41\n        /* \"#utility.yul\":7996:7997   */\n      0x04\n        /* \"#utility.yul\":7989:8004   */\n      mstore\n        /* \"#utility.yul\":8023:8027   */\n      0x24\n        /* \"#utility.yul\":8020:8021   */\n      0x00\n        /* \"#utility.yul\":8013:8028   */\n      revert\n        /* \"#utility.yul\":8040:8321   */\n    tag_104:\n        /* \"#utility.yul\":8123:8150   */\n      tag_199\n        /* \"#utility.yul\":8145:8149   */\n      dup3\n        /* \"#utility.yul\":8123:8150   */\n      tag_90\n      jump\t// in\n    tag_199:\n        /* \"#utility.yul\":8115:8121   */\n      dup2\n        /* \"#utility.yul\":8111:8151   */\n      add\n        /* \"#utility.yul\":8253:8259   */\n      dup2\n        /* \"#utility.yul\":8241:8251   */\n      dup2\n        /* \"#utility.yul\":8238:8260   */\n      lt\n        /* \"#utility.yul\":8217:8235   */\n      0xffffffffffffffff\n        /* \"#utility.yul\":8205:8215   */\n      dup3\n        /* \"#utility.yul\":8202:8236   */\n      gt\n        /* \"#utility.yul\":8199:8261   */\n      or\n        /* \"#utility.yul\":8196:8284   */\n      iszero\n      tag_200\n      jumpi\n        /* \"#utility.yul\":8264:8282   */\n      tag_201\n      tag_103\n      jump\t// in\n    tag_201:\n        /* \"#utility.yul\":8196:8284   */\n    tag_200:\n        /* \"#utility.yul\":8304:8314   */\n      dup1\n        /* \"#utility.yul\":8300:8302   */\n      0x40\n        /* \"#utility.yul\":8293:8315   */\n      mstore\n        /* \"#utility.yul\":8083:8321   */\n      pop\n        /* \"#utility.yul\":8040:8321   */\n      pop\n      pop\n      jump\t// out\n        /* \"#utility.yul\":8327:8456   */\n    tag_105:\n        /* \"#utility.yul\":8361:8367   */\n      0x00\n        /* \"#utility.yul\":8388:8408   */\n      tag_203\n      tag_77\n      jump\t// in\n    tag_203:\n        /* \"#utility.yul\":8378:8408   */\n      swap1\n      pop\n        /* \"#utility.yul\":8417:8450   */\n      tag_204\n        /* \"#utility.yul\":8445:8449   */\n      dup3\n        /* \"#utility.yul\":8437:8443   */\n      dup3\n        /* \"#utility.yul\":8417:8450   */\n      tag_104\n      jump\t// in\n    tag_204:\n        /* \"#utility.yul\":8327:8456   */\n      swap2\n      swap1\n      pop\n      jump\t// out\n        /* \"#utility.yul\":8462:8770   */\n    tag_106:\n        /* \"#utility.yul\":8524:8528   */\n      0x00\n        /* \"#utility.yul\":8614:8632   */\n      0xffffffffffffffff\n        /* \"#utility.yul\":8606:8612   */\n      dup3\n        /* \"#utility.yul\":8603:8633   */\n      gt\n        /* \"#utility.yul\":8600:8656   */\n      iszero\n      tag_206\n      jumpi\n        /* \"#utility.yul\":8636:8654   */\n      tag_207\n      tag_103\n      jump\t// in\n    tag_207:\n        /* \"#utility.yul\":8600:8656   */\n    tag_206:\n        /* \"#utility.yul\":8674:8703   */\n      tag_208\n        /* \"#utility.yul\":8696:8702   */\n      dup3\n        /* \"#utility.yul\":8674:8703   */\n      tag_90\n      jump\t// in\n    tag_208:\n        /* \"#utility.yul\":8666:8703   */\n      swap1\n      pop\n        /* \"#utility.yul\":8758:8762   */\n      0x20\n        /* \"#utility.yul\":8752:8756   */\n      dup2\n        /* \"#utility.yul\":8748:8763   */\n      add\n        /* \"#utility.yul\":8740:8763   */\n      swap1\n      pop\n        /* \"#utility.yul\":8462:8770   */\n      swap2\n      swap1\n      pop\n      jump\t// out\n        /* \"#utility.yul\":8776:9201   */\n    tag_107:\n        /* \"#utility.yul\":8854:8859   */\n      0x00\n        /* \"#utility.yul\":8879:8945   */\n      tag_210\n        /* \"#utility.yul\":8895:8944   */\n      tag_211\n        /* \"#utility.yul\":8937:8943   */\n      dup5\n        /* \"#utility.yul\":8895:8944   */\n      tag_106\n      jump\t// in\n    tag_211:\n        /* \"#utility.yul\":8879:8945   */\n      tag_105\n      jump\t// in\n    tag_210:\n        /* \"#utility.yul\":8870:8945   */\n      swap1\n      pop\n        /* \"#utility.yul\":8968:8974   */\n      dup3\n        /* \"#utility.yul\":8961:8966   */\n      dup2\n        /* \"#utility.yul\":8954:8975   */\n      mstore\n        /* \"#utility.yul\":9006:9010   */\n      0x20\n        /* \"#utility.yul\":8999:9004   */\n      dup2\n        /* \"#utility.yul\":8995:9011   */\n      add\n        /* \"#utility.yul\":9044:9047   */\n      dup5\n        /* \"#utility.yul\":9035:9041   */\n      dup5\n        /* \"#utility.yul\":9030:9033   */\n      dup5\n        /* \"#utility.yul\":9026:9042   */\n      add\n        /* \"#utility.yul\":9023:9048   */\n      gt\n        /* \"#utility.yul\":9020:9132   */\n      iszero\n      tag_212\n      jumpi\n        /* \"#utility.yul\":9051:9130   */\n      tag_213\n      tag_102\n      jump\t// in\n    tag_213:\n        /* \"#utility.yul\":9020:9132   */\n    tag_212:\n        /* \"#utility.yul\":9141:9195   */\n      tag_214\n        /* \"#utility.yul\":9188:9194   */\n      dup5\n        /* \"#utility.yul\":9183:9186   */\n      dup3\n        /* \"#utility.yul\":9178:9181   */\n      dup6\n        /* \"#utility.yul\":9141:9195   */\n      tag_100\n      jump\t// in\n    tag_214:\n        /* \"#utility.yul\":8860:9201   */\n      pop\n        /* \"#utility.yul\":8776:9201   */\n      swap4\n      swap3\n      pop\n      pop\n      pop\n      jump\t// out\n        /* \"#utility.yul\":9221:9561   */\n    tag_108:\n        /* \"#utility.yul\":9277:9282   */\n      0x00\n        /* \"#utility.yul\":9326:9329   */\n      dup3\n        /* \"#utility.yul\":9319:9323   */\n      0x1f\n        /* \"#utility.yul\":9311:9317   */\n      dup4\n        /* \"#utility.yul\":9307:9324   */\n      add\n        /* \"#utility.yul\":9303:9330   */\n      slt\n        /* \"#utility.yul\":9293:9415   */\n      tag_216\n      jumpi\n        /* \"#utility.yul\":9334:9413   */\n      tag_217\n      tag_83\n      jump\t// in\n    tag_217:\n        /* \"#utility.yul\":9293:9415   */\n    tag_216:\n        /* \"#utility.yul\":9451:9457   */\n      dup2\n        /* \"#utility.yul\":9438:9458   */\n      calldataload\n        /* \"#utility.yul\":9476:9555   */\n      tag_218\n        /* \"#utility.yul\":9551:9554   */\n      dup5\n        /* \"#utility.yul\":9543:9549   */\n      dup3\n        /* \"#utility.yul\":9536:9540   */\n      0x20\n        /* \"#utility.yul\":9528:9534   */\n      dup7\n        /* \"#utility.yul\":9524:9541   */\n      add\n        /* \"#utility.yul\":9476:9555   */\n      tag_107\n      jump\t// in\n    tag_218:\n        /* \"#utility.yul\":9467:9555   */\n      swap2\n      pop\n        /* \"#utility.yul\":9283:9561   */\n      pop\n        /* \"#utility.yul\":9221:9561   */\n      swap3\n      swap2\n      pop\n      pop\n      jump\t// out\n        /* \"#utility.yul\":9567:10221   */\n    tag_59:\n        /* \"#utility.yul\":9645:9651   */\n      0x00\n        /* \"#utility.yul\":9653:9659   */\n      dup1\n        /* \"#utility.yul\":9702:9704   */\n      0x40\n        /* \"#utility.yul\":9690:9699   */\n      dup4\n        /* \"#utility.yul\":9681:9688   */\n      dup6\n        /* \"#utility.yul\":9677:9700   */\n      sub\n        /* \"#utility.yul\":9673:9705   */\n      slt\n        /* \"#utility.yul\":9670:9789   */\n      iszero\n      tag_220\n      jumpi\n        /* \"#utility.yul\":9708:9787   */\n      tag_221\n      tag_78\n      jump\t// in\n    tag_221:\n        /* \"#utility.yul\":9670:9789   */\n    tag_220:\n        /* \"#utility.yul\":9828:9829   */\n      0x00\n        /* \"#utility.yul\":9853:9906   */\n      tag_222\n        /* \"#utility.yul\":9898:9905   */\n      dup6\n        /* \"#utility.yul\":9889:9895   */\n      dup3\n        /* \"#utility.yul\":9878:9887   */\n      dup7\n        /* \"#utility.yul\":9874:9896   */\n      add\n        /* \"#utility.yul\":9853:9906   */\n      tag_82\n      jump\t// in\n    tag_222:\n        /* \"#utility.yul\":9843:9906   */\n      swap3\n      pop\n        /* \"#utility.yul\":9799:9916   */\n      pop\n        /* \"#utility.yul\":9983:9985   */\n      0x20\n        /* \"#utility.yul\":9972:9981   */\n      dup4\n        /* \"#utility.yul\":9968:9986   */\n      add\n        /* \"#utility.yul\":9955:9987   */\n      calldataload\n        /* \"#utility.yul\":10014:10032   */\n      0xffffffffffffffff\n        /* \"#utility.yul\":10006:10012   */\n      dup2\n        /* \"#utility.yul\":10003:10033   */\n      gt\n        /* \"#utility.yul\":10000:10117   */\n      iszero\n      tag_223\n      jumpi\n        /* \"#utility.yul\":10036:10115   */\n      tag_224\n      tag_79\n      jump\t// in\n    tag_224:\n        /* \"#utility.yul\":10000:10117   */\n    tag_223:\n        /* \"#utility.yul\":10141:10204   */\n      tag_225\n        /* \"#utility.yul\":10196:10203   */\n      dup6\n        /* \"#utility.yul\":10187:10193   */\n      dup3\n        /* \"#utility.yul\":10176:10185   */\n      dup7\n        /* \"#utility.yul\":10172:10194   */\n      add\n        /* \"#utility.yul\":10141:10204   */\n      tag_108\n      jump\t// in\n    tag_225:\n        /* \"#utility.yul\":10131:10204   */\n      swap2\n      pop\n        /* \"#utility.yul\":9926:10214   */\n      pop\n        /* \"#utility.yul\":9567:10221   */\n      swap3\n      pop\n      swap3\n      swap1\n      pop\n      jump\t// out\n        /* \"#utility.yul\":10227:10402   */\n    tag_109:\n        /* \"#utility.yul\":10367:10394   */\n      0x537461676520322066756e647320617265206c6f636b65642e00000000000000\n        /* \"#utility.yul\":10363:10364   */\n      0x00\n        /* \"#utility.yul\":10355:10361   */\n      dup3\n        /* \"#utility.yul\":10351:10365   */\n      add\n        /* \"#utility.yul\":10344:10395   */\n      mstore\n        /* \"#utility.yul\":10227:10402   */\n      pop\n      jump\t// out\n        /* \"#utility.yul\":10408:10774   */\n    tag_110:\n        /* \"#utility.yul\":10550:10553   */\n      0x00\n        /* \"#utility.yul\":10571:10638   */\n      tag_228\n        /* \"#utility.yul\":10635:10637   */\n      0x19\n        /* \"#utility.yul\":10630:10633   */\n      dup4\n        /* \"#utility.yul\":10571:10638   */\n      tag_95\n      jump\t// in\n    tag_228:\n        /* \"#utility.yul\":10564:10638   */\n      swap2\n      pop\n        /* \"#utility.yul\":10647:10740   */\n      tag_229\n        /* \"#utility.yul\":10736:10739   */\n      dup3\n        /* \"#utility.yul\":10647:10740   */\n      tag_109\n      jump\t// in\n    tag_229:\n        /* \"#utility.yul\":10765:10767   */\n      0x20\n        /* \"#utility.yul\":10760:10763   */\n      dup3\n        /* \"#utility.yul\":10756:10768   */\n      add\n        /* \"#utility.yul\":10749:10768   */\n      swap1\n      pop\n        /* \"#utility.yul\":10408:10774   */\n      swap2\n      swap1\n      pop\n      jump\t// out\n        /* \"#utility.yul\":10780:11199   */\n    tag_63:\n        /* \"#utility.yul\":10946:10950   */\n      0x00\n        /* \"#utility.yul\":10984:10986   */\n      0x20\n        /* \"#utility.yul\":10973:10982   */\n      dup3\n        /* \"#utility.yul\":10969:10987   */\n      add\n        /* \"#utility.yul\":10961:10987   */\n      swap1\n      pop\n        /* \"#utility.yul\":11033:11042   */\n      dup2\n        /* \"#utility.yul\":11027:11031   */\n      dup2\n        /* \"#utility.yul\":11023:11043   */\n      sub\n        /* \"#utility.yul\":11019:11020   */\n      0x00\n        /* \"#utility.yul\":11008:11017   */\n      dup4\n        /* \"#utility.yul\":11004:11021   */\n      add\n        /* \"#utility.yul\":10997:11044   */\n      mstore\n        /* \"#utility.yul\":11061:11192   */\n      tag_231\n        /* \"#utility.yul\":11187:11191   */\n      dup2\n        /* \"#utility.yul\":11061:11192   */\n      tag_110\n      jump\t// in\n    tag_231:\n        /* \"#utility.yul\":11053:11192   */\n      swap1\n      pop\n        /* \"#utility.yul\":10780:11199   */\n      swap2\n      swap1\n      pop\n      jump\t// out\n        /* \"#utility.yul\":11205:11379   */\n    tag_111:\n        /* \"#utility.yul\":11345:11371   */\n      0x4f6e6c79206f776e65722063616e2077697468647261772e0000000000000000\n        /* \"#utility.yul\":11341:11342   */\n      0x00\n        /* \"#utility.yul\":11333:11339   */\n      dup3\n        /* \"#utility.yul\":11329:11343   */\n      add\n        /* \"#utility.yul\":11322:11372   */\n      mstore\n        /* \"#utility.yul\":11205:11379   */\n      pop\n      jump\t// out\n        /* \"#utility.yul\":11385:11751   */\n    tag_112:\n        /* \"#utility.yul\":11527:11530   */\n      0x00\n        /* \"#utility.yul\":11548:11615   */\n      tag_234\n        /* \"#utility.yul\":11612:11614   */\n      0x18\n        /* \"#utility.yul\":11607:11610   */\n      dup4\n        /* \"#utility.yul\":11548:11615   */\n      tag_95\n      jump\t// in\n    tag_234:\n        /* \"#utility.yul\":11541:11615   */\n      swap2\n      pop\n        /* \"#utility.yul\":11624:11717   */\n      tag_235\n        /* \"#utility.yul\":11713:11716   */\n      dup3\n        /* \"#utility.yul\":11624:11717   */\n      tag_111\n      jump\t// in\n    tag_235:\n        /* \"#utility.yul\":11742:11744   */\n      0x20\n        /* \"#utility.yul\":11737:11740   */\n      dup3\n        /* \"#utility.yul\":11733:11745   */\n      add\n        /* \"#utility.yul\":11726:11745   */\n      swap1\n      pop\n        /* \"#utility.yul\":11385:11751   */\n      swap2\n      swap1\n      pop\n      jump\t// out\n        /* \"#utility.yul\":11757:12176   */\n    tag_66:\n        /* \"#utility.yul\":11923:11927   */\n      0x00\n        /* \"#utility.yul\":11961:11963   */\n      0x20\n        /* \"#utility.yul\":11950:11959   */\n      dup3\n        /* \"#utility.yul\":11946:11964   */\n      add\n        /* \"#utility.yul\":11938:11964   */\n      swap1\n      pop\n        /* \"#utility.yul\":12010:12019   */\n      dup2\n        /* \"#utility.yul\":12004:12008   */\n      dup2\n        /* \"#utility.yul\":12000:12020   */\n      sub\n        /* \"#utility.yul\":11996:11997   */\n      0x00\n        /* \"#utility.yul\":11985:11994   */\n      dup4\n        /* \"#utility.yul\":11981:11998   */\n      add\n        /* \"#utility.yul\":11974:12021   */\n      mstore\n        /* \"#utility.yul\":12038:12169   */\n      tag_237\n        /* \"#utility.yul\":12164:12168   */\n      dup2\n        /* \"#utility.yul\":12038:12169   */\n      tag_112\n      jump\t// in\n    tag_237:\n        /* \"#utility.yul\":12030:12169   */\n      swap1\n      pop\n        /* \"#utility.yul\":11757:12176   */\n      swap2\n      swap1\n      pop\n      jump\t// out\n        /* \"#utility.yul\":12182:12357   */\n    tag_113:\n        /* \"#utility.yul\":12322:12349   */\n      0x537461676520312066756e647320617265206c6f636b65642e00000000000000\n        /* \"#utility.yul\":12318:12319   */\n      0x00\n        /* \"#utility.yul\":12310:12316   */\n      dup3\n        /* \"#utility.yul\":12306:12320   */\n      add\n        /* \"#utility.yul\":12299:12350   */\n      mstore\n        /* \"#utility.yul\":12182:12357   */\n      pop\n      jump\t// out\n        /* \"#utility.yul\":12363:12729   */\n    tag_114:\n        /* \"#utility.yul\":12505:12508   */\n      0x00\n        /* \"#utility.yul\":12526:12593   */\n      tag_240\n        /* \"#utility.yul\":12590:12592   */\n      0x19\n        /* \"#utility.yul\":12585:12588   */\n      dup4\n        /* \"#utility.yul\":12526:12593   */\n      tag_95\n      jump\t// in\n    tag_240:\n        /* \"#utility.yul\":12519:12593   */\n      swap2\n      pop\n        /* \"#utility.yul\":12602:12695   */\n      tag_241\n        /* \"#utility.yul\":12691:12694   */\n      dup3\n        /* \"#utility.yul\":12602:12695   */\n      tag_113\n      jump\t// in\n    tag_241:\n        /* \"#utility.yul\":12720:12722   */\n      0x20\n        /* \"#utility.yul\":12715:12718   */\n      dup3\n        /* \"#utility.yul\":12711:12723   */\n      add\n        /* \"#utility.yul\":12704:12723   */\n      swap1\n      pop\n        /* \"#utility.yul\":12363:12729   */\n      swap2\n      swap1\n      pop\n      jump\t// out\n        /* \"#utility.yul\":12735:13154   */\n    tag_70:\n        /* \"#utility.yul\":12901:12905   */\n      0x00\n        /* \"#utility.yul\":12939:12941   */\n      0x20\n        /* \"#utility.yul\":12928:12937   */\n      dup3\n        /* \"#utility.yul\":12924:12942   */\n      add\n        /* \"#utility.yul\":12916:12942   */\n      swap1\n      pop\n        /* \"#utility.yul\":12988:12997   */\n      dup2\n        /* \"#utility.yul\":12982:12986   */\n      dup2\n        /* \"#utility.yul\":12978:12998   */\n      sub\n        /* \"#utility.yul\":12974:12975   */\n      0x00\n        /* \"#utility.yul\":12963:12972   */\n      dup4\n        /* \"#utility.yul\":12959:12976   */\n      add\n        /* \"#utility.yul\":12952:12999   */\n      mstore\n        /* \"#utility.yul\":13016:13147   */\n      tag_243\n        /* \"#utility.yul\":13142:13146   */\n      dup2\n        /* \"#utility.yul\":13016:13147   */\n      tag_114\n      jump\t// in\n    tag_243:\n        /* \"#utility.yul\":13008:13147   */\n      swap1\n      pop\n        /* \"#utility.yul\":12735:13154   */\n      swap2\n      swap1\n      pop\n      jump\t// out\n\n    auxdata: 0xa2646970667358221220f0acb929927ca347500198324cadb51154e71c5a8d8f70aad961ad10ad273af364736f6c634300081a0033\n}\n",
				"bytecode": {
					"linkReferences": {},
					"object": "608060405234801561000f575f80fd5b50604051610c9d380380610c9d833981810160405281019061003191906100ee565b3360025f6101000a81548173ffffffffffffffffffffffffffffffffffffffff021916908373ffffffffffffffffffffffffffffffffffffffff16021790555062015180826100809190610159565b4261008b919061019a565b5f81905550620151808161009f9190610159565b426100aa919061019a565b60018190555050506101cd565b5f80fd5b5f819050919050565b6100cd816100bb565b81146100d7575f80fd5b50565b5f815190506100e8816100c4565b92915050565b5f8060408385031215610104576101036100b7565b5b5f610111858286016100da565b9250506020610122858286016100da565b9150509250929050565b7f4e487b71000000000000000000000000000000000000000000000000000000005f52601160045260245ffd5b5f610163826100bb565b915061016e836100bb565b925082820261017c816100bb565b915082820484148315176101935761019261012c565b5b5092915050565b5f6101a4826100bb565b91506101af836100bb565b92508282019050808211156101c7576101c661012c565b5b92915050565b610ac3806101da5f395ff3fe608060405234801561000f575f80fd5b50600436106100a7575f3560e01c80638da5cb5b1161006f5780638da5cb5b1461013e5780639fcb6c611461015c578063c0821da31461017a578063d1a82a9d14610198578063daee6838146101b6578063fba0e4bb146101d4576100a7565b806342a6e672146100ab578063447a06f5146100db57806368efabc01461010c57806370d1c57114610116578063889ec60514610134575b5f80fd5b6100c560048036038101906100c091906104dc565b6101f2565b6040516100d291906105a9565b60405180910390f35b6100f560048036038101906100f0919061061e565b610223565b6040516101039291906106ca565b60405180910390f35b610114610240565b005b61011e610316565b60405161012b91906106f8565b60405180910390f35b61013c61031b565b005b6101466103f0565b6040516101539190610750565b60405180910390f35b610164610415565b60405161017191906106f8565b60405180910390f35b61018261041b565b60405161018f91906106f8565b60405180910390f35b6101a0610422565b6040516101ad9190610750565b60405180910390f35b6101be610429565b6040516101cb91906106f8565b60405180910390f35b6101dc610430565b6040516101e991906106f8565b60405180910390f35b60608383833060405160200161020b94939291906107a3565b60405160208183030381529060405290509392505050565b5f6060838381019061023591906108fb565b915091509250929050565b600154421015610285576040517f08c379a000000000000000000000000000000000000000000000000000000000815260040161027c9061099f565b60405180910390fd5b60025f9054906101000a900473ffffffffffffffffffffffffffffffffffffffff1673ffffffffffffffffffffffffffffffffffffffff163373ffffffffffffffffffffffffffffffffffffffff1614610314576040517f08c379a000000000000000000000000000000000000000000000000000000000815260040161030b90610a07565b60405180910390fd5b565b5f5481565b5f5442101561035f576040517f08c379a000000000000000000000000000000000000000000000000000000000815260040161035690610a6f565b60405180910390fd5b60025f9054906101000a900473ffffffffffffffffffffffffffffffffffffffff1673ffffffffffffffffffffffffffffffffffffffff163373ffffffffffffffffffffffffffffffffffffffff16146103ee576040517f08c379a00000000000000000000000000000000000000000000000000000000081526004016103e590610a07565b60405180910390fd5b565b60025f9054906101000a900473ffffffffffffffffffffffffffffffffffffffff1681565b60015481565b5f42905090565b5f41905090565b5f3a905090565b5f43905090565b5f604051905090565b5f80fd5b5f80fd5b5f819050919050565b61045a81610448565b8114610464575f80fd5b50565b5f8135905061047581610451565b92915050565b5f80fd5b5f80fd5b5f80fd5b5f8083601f84011261049c5761049b61047b565b5b8235905067ffffffffffffffff8111156104b9576104b861047f565b5b6020830191508360018202830111156104d5576104d4610483565b5b9250929050565b5f805f604084860312156104f3576104f2610440565b5b5f61050086828701610467565b935050602084013567ffffffffffffffff81111561052157610520610444565b5b61052d86828701610487565b92509250509250925092565b5f81519050919050565b5f82825260208201905092915050565b8281835e5f83830152505050565b5f601f19601f8301169050919050565b5f61057b82610539565b6105858185610543565b9350610595818560208601610553565b61059e81610561565b840191505092915050565b5f6020820190508181035f8301526105c18184610571565b905092915050565b5f8083601f8401126105de576105dd61047b565b5b8235905067ffffffffffffffff8111156105fb576105fa61047f565b5b60208301915083600182028301111561061757610616610483565b5b9250929050565b5f806020838503121561063457610633610440565b5b5f83013567ffffffffffffffff81111561065157610650610444565b5b61065d858286016105c9565b92509250509250929050565b61067281610448565b82525050565b5f81519050919050565b5f82825260208201905092915050565b5f61069c82610678565b6106a68185610682565b93506106b6818560208601610553565b6106bf81610561565b840191505092915050565b5f6040820190506106dd5f830185610669565b81810360208301526106ef8184610692565b90509392505050565b5f60208201905061070b5f830184610669565b92915050565b5f73ffffffffffffffffffffffffffffffffffffffff82169050919050565b5f61073a82610711565b9050919050565b61074a81610730565b82525050565b5f6020820190506107635f830184610741565b92915050565b828183375f83830152505050565b5f6107828385610682565b935061078f838584610769565b61079883610561565b840190509392505050565b5f6060820190506107b65f830187610669565b81810360208301526107c9818587610777565b90506107d86040830184610741565b95945050505050565b5f80fd5b7f4e487b71000000000000000000000000000000000000000000000000000000005f52604160045260245ffd5b61081b82610561565b810181811067ffffffffffffffff8211171561083a576108396107e5565b5b80604052505050565b5f61084c610437565b90506108588282610812565b919050565b5f67ffffffffffffffff821115610877576108766107e5565b5b61088082610561565b9050602081019050919050565b5f61089f61089a8461085d565b610843565b9050828152602081018484840111156108bb576108ba6107e1565b5b6108c6848285610769565b509392505050565b5f82601f8301126108e2576108e161047b565b5b81356108f284826020860161088d565b91505092915050565b5f806040838503121561091157610910610440565b5b5f61091e85828601610467565b925050602083013567ffffffffffffffff81111561093f5761093e610444565b5b61094b858286016108ce565b9150509250929050565b7f537461676520322066756e647320617265206c6f636b65642e000000000000005f82015250565b5f610989601983610682565b915061099482610955565b602082019050919050565b5f6020820190508181035f8301526109b68161097d565b9050919050565b7f4f6e6c79206f776e65722063616e2077697468647261772e00000000000000005f82015250565b5f6109f1601883610682565b91506109fc826109bd565b602082019050919050565b5f6020820190508181035f830152610a1e816109e5565b9050919050565b7f537461676520312066756e647320617265206c6f636b65642e000000000000005f82015250565b5f610a59601983610682565b9150610a6482610a25565b602082019050919050565b5f6020820190508181035f830152610a8681610a4d565b905091905056fea2646970667358221220f0acb929927ca347500198324cadb51154e71c5a8d8f70aad961ad10ad273af364736f6c634300081a0033",
					"opcodes": "PUSH1 0x80 PUSH1 0x40 MSTORE CALLVALUE DUP1 ISZERO PUSH2 0xF JUMPI PUSH0 DUP1 REVERT JUMPDEST POP PUSH1 0x40 MLOAD PUSH2 0xC9D CODESIZE SUB DUP1 PUSH2 0xC9D DUP4 CODECOPY DUP2 DUP2 ADD PUSH1 0x40 MSTORE DUP2 ADD SWAP1 PUSH2 0x31 SWAP2 SWAP1 PUSH2 0xEE JUMP JUMPDEST CALLER PUSH1 0x2 PUSH0 PUSH2 0x100 EXP DUP2 SLOAD DUP2 PUSH20 0xFFFFFFFFFFFFFFFFFFFFFFFFFFFFFFFFFFFFFFFF MUL NOT AND SWAP1 DUP4 PUSH20 0xFFFFFFFFFFFFFFFFFFFFFFFFFFFFFFFFFFFFFFFF AND MUL OR SWAP1 SSTORE POP PUSH3 0x15180 DUP3 PUSH2 0x80 SWAP2 SWAP1 PUSH2 0x159 JUMP JUMPDEST TIMESTAMP PUSH2 0x8B SWAP2 SWAP1 PUSH2 0x19A JUMP JUMPDEST PUSH0 DUP2 SWAP1 SSTORE POP PUSH3 0x15180 DUP2 PUSH2 0x9F SWAP2 SWAP1 PUSH2 0x159 JUMP JUMPDEST TIMESTAMP PUSH2 0xAA SWAP2 SWAP1 PUSH2 0x19A JUMP JUMPDEST PUSH1 0x1 DUP2 SWAP1 SSTORE POP POP POP PUSH2 0x1CD JUMP JUMPDEST PUSH0 DUP1 REVERT JUMPDEST PUSH0 DUP2 SWAP1 POP SWAP2 SWAP1 POP JUMP JUMPDEST PUSH2 0xCD DUP2 PUSH2 0xBB JUMP JUMPDEST DUP2 EQ PUSH2 0xD7 JUMPI PUSH0 DUP1 REVERT JUMPDEST POP JUMP JUMPDEST PUSH0 DUP2 MLOAD SWAP1 POP PUSH2 0xE8 DUP2 PUSH2 0xC4 JUMP JUMPDEST SWAP3 SWAP2 POP POP JUMP JUMPDEST PUSH0 DUP1 PUSH1 0x40 DUP4 DUP6 SUB SLT ISZERO PUSH2 0x104 JUMPI PUSH2 0x103 PUSH2 0xB7 JUMP JUMPDEST JUMPDEST PUSH0 PUSH2 0x111 DUP6 DUP3 DUP7 ADD PUSH2 0xDA JUMP JUMPDEST SWAP3 POP POP PUSH1 0x20 PUSH2 0x122 DUP6 DUP3 DUP7 ADD PUSH2 0xDA JUMP JUMPDEST SWAP2 POP POP SWAP3 POP SWAP3 SWAP1 POP JUMP JUMPDEST PUSH32 0x4E487B7100000000000000000000000000000000000000000000000000000000 PUSH0 MSTORE PUSH1 0x11 PUSH1 0x4 MSTORE PUSH1 0x24 PUSH0 REVERT JUMPDEST PUSH0 PUSH2 0x163 DUP3 PUSH2 0xBB JUMP JUMPDEST SWAP2 POP PUSH2 0x16E DUP4 PUSH2 0xBB JUMP JUMPDEST SWAP3 POP DUP3 DUP3 MUL PUSH2 0x17C DUP2 PUSH2 0xBB JUMP JUMPDEST SWAP2 POP DUP3 DUP3 DIV DUP5 EQ DUP4 ISZERO OR PUSH2 0x193 JUMPI PUSH2 0x192 PUSH2 0x12C JUMP JUMPDEST JUMPDEST POP SWAP3 SWAP2 POP POP JUMP JUMPDEST PUSH0 PUSH2 0x1A4 DUP3 PUSH2 0xBB JUMP JUMPDEST SWAP2 POP PUSH2 0x1AF DUP4 PUSH2 0xBB JUMP JUMPDEST SWAP3 POP DUP3 DUP3 ADD SWAP1 POP DUP1 DUP3 GT ISZERO PUSH2 0x1C7 JUMPI PUSH2 0x1C6 PUSH2 0x12C JUMP JUMPDEST JUMPDEST SWAP3 SWAP2 POP POP JUMP JUMPDEST PUSH2 0xAC3 DUP1 PUSH2 0x1DA PUSH0 CODECOPY PUSH0 RETURN INVALID PUSH1 0x80 PUSH1 0x40 MSTORE CALLVALUE DUP1 ISZERO PUSH2 0xF JUMPI PUSH0 DUP1 REVERT JUMPDEST POP PUSH1 0x4 CALLDATASIZE LT PUSH2 0xA7 JUMPI PUSH0 CALLDATALOAD PUSH1 0xE0 SHR DUP1 PUSH4 0x8DA5CB5B GT PUSH2 0x6F JUMPI DUP1 PUSH4 0x8DA5CB5B EQ PUSH2 0x13E JUMPI DUP1 PUSH4 0x9FCB6C61 EQ PUSH2 0x15C JUMPI DUP1 PUSH4 0xC0821DA3 EQ PUSH2 0x17A JUMPI DUP1 PUSH4 0xD1A82A9D EQ PUSH2 0x198 JUMPI DUP1 PUSH4 0xDAEE6838 EQ PUSH2 0x1B6 JUMPI DUP1 PUSH4 0xFBA0E4BB EQ PUSH2 0x1D4 JUMPI PUSH2 0xA7 JUMP JUMPDEST DUP1 PUSH4 0x42A6E672 EQ PUSH2 0xAB JUMPI DUP1 PUSH4 0x447A06F5 EQ PUSH2 0xDB JUMPI DUP1 PUSH4 0x68EFABC0 EQ PUSH2 0x10C JUMPI DUP1 PUSH4 0x70D1C571 EQ PUSH2 0x116 JUMPI DUP1 PUSH4 0x889EC605 EQ PUSH2 0x134 JUMPI JUMPDEST PUSH0 DUP1 REVERT JUMPDEST PUSH2 0xC5 PUSH1 0x4 DUP1 CALLDATASIZE SUB DUP2 ADD SWAP1 PUSH2 0xC0 SWAP2 SWAP1 PUSH2 0x4DC JUMP JUMPDEST PUSH2 0x1F2 JUMP JUMPDEST PUSH1 0x40 MLOAD PUSH2 0xD2 SWAP2 SWAP1 PUSH2 0x5A9 JUMP JUMPDEST PUSH1 0x40 MLOAD DUP1 SWAP2 SUB SWAP1 RETURN JUMPDEST PUSH2 0xF5 PUSH1 0x4 DUP1 CALLDATASIZE SUB DUP2 ADD SWAP1 PUSH2 0xF0 SWAP2 SWAP1 PUSH2 0x61E JUMP JUMPDEST PUSH2 0x223 JUMP JUMPDEST PUSH1 0x40 MLOAD PUSH2 0x103 SWAP3 SWAP2 SWAP1 PUSH2 0x6CA JUMP JUMPDEST PUSH1 0x40 MLOAD DUP1 SWAP2 SUB SWAP1 RETURN JUMPDEST PUSH2 0x114 PUSH2 0x240 JUMP JUMPDEST STOP JUMPDEST PUSH2 0x11E PUSH2 0x316 JUMP JUMPDEST PUSH1 0x40 MLOAD PUSH2 0x12B SWAP2 SWAP1 PUSH2 0x6F8 JUMP JUMPDEST PUSH1 0x40 MLOAD DUP1 SWAP2 SUB SWAP1 RETURN JUMPDEST PUSH2 0x13C PUSH2 0x31B JUMP JUMPDEST STOP JUMPDEST PUSH2 0x146 PUSH2 0x3F0 JUMP JUMPDEST PUSH1 0x40 MLOAD PUSH2 0x153 SWAP2 SWAP1 PUSH2 0x750 JUMP JUMPDEST PUSH1 0x40 MLOAD DUP1 SWAP2 SUB SWAP1 RETURN JUMPDEST PUSH2 0x164 PUSH2 0x415 JUMP JUMPDEST PUSH1 0x40 MLOAD PUSH2 0x171 SWAP2 SWAP1 PUSH2 0x6F8 JUMP JUMPDEST PUSH1 0x40 MLOAD DUP1 SWAP2 SUB SWAP1 RETURN JUMPDEST PUSH2 0x182 PUSH2 0x41B JUMP JUMPDEST PUSH1 0x40 MLOAD PUSH2 0x18F SWAP2 SWAP1 PUSH2 0x6F8 JUMP JUMPDEST PUSH1 0x40 MLOAD DUP1 SWAP2 SUB SWAP1 RETURN JUMPDEST PUSH2 0x1A0 PUSH2 0x422 JUMP JUMPDEST PUSH1 0x40 MLOAD PUSH2 0x1AD SWAP2 SWAP1 PUSH2 0x750 JUMP JUMPDEST PUSH1 0x40 MLOAD DUP1 SWAP2 SUB SWAP1 RETURN JUMPDEST PUSH2 0x1BE PUSH2 0x429 JUMP JUMPDEST PUSH1 0x40 MLOAD PUSH2 0x1CB SWAP2 SWAP1 PUSH2 0x6F8 JUMP JUMPDEST PUSH1 0x40 MLOAD DUP1 SWAP2 SUB SWAP1 RETURN JUMPDEST PUSH2 0x1DC PUSH2 0x430 JUMP JUMPDEST PUSH1 0x40 MLOAD PUSH2 0x1E9 SWAP2 SWAP1 PUSH2 0x6F8 JUMP JUMPDEST PUSH1 0x40 MLOAD DUP1 SWAP2 SUB SWAP1 RETURN JUMPDEST PUSH1 0x60 DUP4 DUP4 DUP4 ADDRESS PUSH1 0x40 MLOAD PUSH1 0x20 ADD PUSH2 0x20B SWAP5 SWAP4 SWAP3 SWAP2 SWAP1 PUSH2 0x7A3 JUMP JUMPDEST PUSH1 0x40 MLOAD PUSH1 0x20 DUP2 DUP4 SUB SUB DUP2 MSTORE SWAP1 PUSH1 0x40 MSTORE SWAP1 POP SWAP4 SWAP3 POP POP POP JUMP JUMPDEST PUSH0 PUSH1 0x60 DUP4 DUP4 DUP2 ADD SWAP1 PUSH2 0x235 SWAP2 SWAP1 PUSH2 0x8FB JUMP JUMPDEST SWAP2 POP SWAP2 POP SWAP3 POP SWAP3 SWAP1 POP JUMP JUMPDEST PUSH1 0x1 SLOAD TIMESTAMP LT ISZERO PUSH2 0x285 JUMPI PUSH1 0x40 MLOAD PUSH32 0x8C379A000000000000000000000000000000000000000000000000000000000 DUP2 MSTORE PUSH1 0x4 ADD PUSH2 0x27C SWAP1 PUSH2 0x99F JUMP JUMPDEST PUSH1 0x40 MLOAD DUP1 SWAP2 SUB SWAP1 REVERT JUMPDEST PUSH1 0x2 PUSH0 SWAP1 SLOAD SWAP1 PUSH2 0x100 EXP SWAP1 DIV PUSH20 0xFFFFFFFFFFFFFFFFFFFFFFFFFFFFFFFFFFFFFFFF AND PUSH20 0xFFFFFFFFFFFFFFFFFFFFFFFFFFFFFFFFFFFFFFFF AND CALLER PUSH20 0xFFFFFFFFFFFFFFFFFFFFFFFFFFFFFFFFFFFFFFFF AND EQ PUSH2 0x314 JUMPI PUSH1 0x40 MLOAD PUSH32 0x8C379A000000000000000000000000000000000000000000000000000000000 DUP2 MSTORE PUSH1 0x4 ADD PUSH2 0x30B SWAP1 PUSH2 0xA07 JUMP JUMPDEST PUSH1 0x40 MLOAD DUP1 SWAP2 SUB SWAP1 REVERT JUMPDEST JUMP JUMPDEST PUSH0 SLOAD DUP2 JUMP JUMPDEST PUSH0 SLOAD TIMESTAMP LT ISZERO PUSH2 0x35F JUMPI PUSH1 0x40 MLOAD PUSH32 0x8C379A000000000000000000000000000000000000000000000000000000000 DUP2 MSTORE PUSH1 0x4 ADD PUSH2 0x356 SWAP1 PUSH2 0xA6F JUMP JUMPDEST PUSH1 0x40 MLOAD DUP1 SWAP2 SUB SWAP1 REVERT JUMPDEST PUSH1 0x2 PUSH0 SWAP1 SLOAD SWAP1 PUSH2 0x100 EXP SWAP1 DIV PUSH20 0xFFFFFFFFFFFFFFFFFFFFFFFFFFFFFFFFFFFFFFFF AND PUSH20 0xFFFFFFFFFFFFFFFFFFFFFFFFFFFFFFFFFFFFFFFF AND CALLER PUSH20 0xFFFFFFFFFFFFFFFFFFFFFFFFFFFFFFFFFFFFFFFF AND EQ PUSH2 0x3EE JUMPI PUSH1 0x40 MLOAD PUSH32 0x8C379A000000000000000000000000000000000000000000000000000000000 DUP2 MSTORE PUSH1 0x4 ADD PUSH2 0x3E5 SWAP1 PUSH2 0xA07 JUMP JUMPDEST PUSH1 0x40 MLOAD DUP1 SWAP2 SUB SWAP1 REVERT JUMPDEST JUMP JUMPDEST PUSH1 0x2 PUSH0 SWAP1 SLOAD SWAP1 PUSH2 0x100 EXP SWAP1 DIV PUSH20 0xFFFFFFFFFFFFFFFFFFFFFFFFFFFFFFFFFFFFFFFF AND DUP2 JUMP JUMPDEST PUSH1 0x1 SLOAD DUP2 JUMP JUMPDEST PUSH0 TIMESTAMP SWAP1 POP SWAP1 JUMP JUMPDEST PUSH0 COINBASE SWAP1 POP SWAP1 JUMP JUMPDEST PUSH0 GASPRICE SWAP1 POP SWAP1 JUMP JUMPDEST PUSH0 NUMBER SWAP1 POP SWAP1 JUMP JUMPDEST PUSH0 PUSH1 0x40 MLOAD SWAP1 POP SWAP1 JUMP JUMPDEST PUSH0 DUP1 REVERT JUMPDEST PUSH0 DUP1 REVERT JUMPDEST PUSH0 DUP2 SWAP1 POP SWAP2 SWAP1 POP JUMP JUMPDEST PUSH2 0x45A DUP2 PUSH2 0x448 JUMP JUMPDEST DUP2 EQ PUSH2 0x464 JUMPI PUSH0 DUP1 REVERT JUMPDEST POP JUMP JUMPDEST PUSH0 DUP2 CALLDATALOAD SWAP1 POP PUSH2 0x475 DUP2 PUSH2 0x451 JUMP JUMPDEST SWAP3 SWAP2 POP POP JUMP JUMPDEST PUSH0 DUP1 REVERT JUMPDEST PUSH0 DUP1 REVERT JUMPDEST PUSH0 DUP1 REVERT JUMPDEST PUSH0 DUP1 DUP4 PUSH1 0x1F DUP5 ADD SLT PUSH2 0x49C JUMPI PUSH2 0x49B PUSH2 0x47B JUMP JUMPDEST JUMPDEST DUP3 CALLDATALOAD SWAP1 POP PUSH8 0xFFFFFFFFFFFFFFFF DUP2 GT ISZERO PUSH2 0x4B9 JUMPI PUSH2 0x4B8 PUSH2 0x47F JUMP JUMPDEST JUMPDEST PUSH1 0x20 DUP4 ADD SWAP2 POP DUP4 PUSH1 0x1 DUP3 MUL DUP4 ADD GT ISZERO PUSH2 0x4D5 JUMPI PUSH2 0x4D4 PUSH2 0x483 JUMP JUMPDEST JUMPDEST SWAP3 POP SWAP3 SWAP1 POP JUMP JUMPDEST PUSH0 DUP1 PUSH0 PUSH1 0x40 DUP5 DUP7 SUB SLT ISZERO PUSH2 0x4F3 JUMPI PUSH2 0x4F2 PUSH2 0x440 JUMP JUMPDEST JUMPDEST PUSH0 PUSH2 0x500 DUP7 DUP3 DUP8 ADD PUSH2 0x467 JUMP JUMPDEST SWAP4 POP POP PUSH1 0x20 DUP5 ADD CALLDATALOAD PUSH8 0xFFFFFFFFFFFFFFFF DUP2 GT ISZERO PUSH2 0x521 JUMPI PUSH2 0x520 PUSH2 0x444 JUMP JUMPDEST JUMPDEST PUSH2 0x52D DUP7 DUP3 DUP8 ADD PUSH2 0x487 JUMP JUMPDEST SWAP3 POP SWAP3 POP POP SWAP3 POP SWAP3 POP SWAP3 JUMP JUMPDEST PUSH0 DUP2 MLOAD SWAP1 POP SWAP2 SWAP1 POP JUMP JUMPDEST PUSH0 DUP3 DUP3 MSTORE PUSH1 0x20 DUP3 ADD SWAP1 POP SWAP3 SWAP2 POP POP JUMP JUMPDEST DUP3 DUP2 DUP4 MCOPY PUSH0 DUP4 DUP4 ADD MSTORE POP POP POP JUMP JUMPDEST PUSH0 PUSH1 0x1F NOT PUSH1 0x1F DUP4 ADD AND SWAP1 POP SWAP2 SWAP1 POP JUMP JUMPDEST PUSH0 PUSH2 0x57B DUP3 PUSH2 0x539 JUMP JUMPDEST PUSH2 0x585 DUP2 DUP6 PUSH2 0x543 JUMP JUMPDEST SWAP4 POP PUSH2 0x595 DUP2 DUP6 PUSH1 0x20 DUP7 ADD PUSH2 0x553 JUMP JUMPDEST PUSH2 0x59E DUP2 PUSH2 0x561 JUMP JUMPDEST DUP5 ADD SWAP2 POP POP SWAP3 SWAP2 POP POP JUMP JUMPDEST PUSH0 PUSH1 0x20 DUP3 ADD SWAP1 POP DUP2 DUP2 SUB PUSH0 DUP4 ADD MSTORE PUSH2 0x5C1 DUP2 DUP5 PUSH2 0x571 JUMP JUMPDEST SWAP1 POP SWAP3 SWAP2 POP POP JUMP JUMPDEST PUSH0 DUP1 DUP4 PUSH1 0x1F DUP5 ADD SLT PUSH2 0x5DE JUMPI PUSH2 0x5DD PUSH2 0x47B JUMP JUMPDEST JUMPDEST DUP3 CALLDATALOAD SWAP1 POP PUSH8 0xFFFFFFFFFFFFFFFF DUP2 GT ISZERO PUSH2 0x5FB JUMPI PUSH2 0x5FA PUSH2 0x47F JUMP JUMPDEST JUMPDEST PUSH1 0x20 DUP4 ADD SWAP2 POP DUP4 PUSH1 0x1 DUP3 MUL DUP4 ADD GT ISZERO PUSH2 0x617 JUMPI PUSH2 0x616 PUSH2 0x483 JUMP JUMPDEST JUMPDEST SWAP3 POP SWAP3 SWAP1 POP JUMP JUMPDEST PUSH0 DUP1 PUSH1 0x20 DUP4 DUP6 SUB SLT ISZERO PUSH2 0x634 JUMPI PUSH2 0x633 PUSH2 0x440 JUMP JUMPDEST JUMPDEST PUSH0 DUP4 ADD CALLDATALOAD PUSH8 0xFFFFFFFFFFFFFFFF DUP2 GT ISZERO PUSH2 0x651 JUMPI PUSH2 0x650 PUSH2 0x444 JUMP JUMPDEST JUMPDEST PUSH2 0x65D DUP6 DUP3 DUP7 ADD PUSH2 0x5C9 JUMP JUMPDEST SWAP3 POP SWAP3 POP POP SWAP3 POP SWAP3 SWAP1 POP JUMP JUMPDEST PUSH2 0x672 DUP2 PUSH2 0x448 JUMP JUMPDEST DUP3 MSTORE POP POP JUMP JUMPDEST PUSH0 DUP2 MLOAD SWAP1 POP SWAP2 SWAP1 POP JUMP JUMPDEST PUSH0 DUP3 DUP3 MSTORE PUSH1 0x20 DUP3 ADD SWAP1 POP SWAP3 SWAP2 POP POP JUMP JUMPDEST PUSH0 PUSH2 0x69C DUP3 PUSH2 0x678 JUMP JUMPDEST PUSH2 0x6A6 DUP2 DUP6 PUSH2 0x682 JUMP JUMPDEST SWAP4 POP PUSH2 0x6B6 DUP2 DUP6 PUSH1 0x20 DUP7 ADD PUSH2 0x553 JUMP JUMPDEST PUSH2 0x6BF DUP2 PUSH2 0x561 JUMP JUMPDEST DUP5 ADD SWAP2 POP POP SWAP3 SWAP2 POP POP JUMP JUMPDEST PUSH0 PUSH1 0x40 DUP3 ADD SWAP1 POP PUSH2 0x6DD PUSH0 DUP4 ADD DUP6 PUSH2 0x669 JUMP JUMPDEST DUP2 DUP2 SUB PUSH1 0x20 DUP4 ADD MSTORE PUSH2 0x6EF DUP2 DUP5 PUSH2 0x692 JUMP JUMPDEST SWAP1 POP SWAP4 SWAP3 POP POP POP JUMP JUMPDEST PUSH0 PUSH1 0x20 DUP3 ADD SWAP1 POP PUSH2 0x70B PUSH0 DUP4 ADD DUP5 PUSH2 0x669 JUMP JUMPDEST SWAP3 SWAP2 POP POP JUMP JUMPDEST PUSH0 PUSH20 0xFFFFFFFFFFFFFFFFFFFFFFFFFFFFFFFFFFFFFFFF DUP3 AND SWAP1 POP SWAP2 SWAP1 POP JUMP JUMPDEST PUSH0 PUSH2 0x73A DUP3 PUSH2 0x711 JUMP JUMPDEST SWAP1 POP SWAP2 SWAP1 POP JUMP JUMPDEST PUSH2 0x74A DUP2 PUSH2 0x730 JUMP JUMPDEST DUP3 MSTORE POP POP JUMP JUMPDEST PUSH0 PUSH1 0x20 DUP3 ADD SWAP1 POP PUSH2 0x763 PUSH0 DUP4 ADD DUP5 PUSH2 0x741 JUMP JUMPDEST SWAP3 SWAP2 POP POP JUMP JUMPDEST DUP3 DUP2 DUP4 CALLDATACOPY PUSH0 DUP4 DUP4 ADD MSTORE POP POP POP JUMP JUMPDEST PUSH0 PUSH2 0x782 DUP4 DUP6 PUSH2 0x682 JUMP JUMPDEST SWAP4 POP PUSH2 0x78F DUP4 DUP6 DUP5 PUSH2 0x769 JUMP JUMPDEST PUSH2 0x798 DUP4 PUSH2 0x561 JUMP JUMPDEST DUP5 ADD SWAP1 POP SWAP4 SWAP3 POP POP POP JUMP JUMPDEST PUSH0 PUSH1 0x60 DUP3 ADD SWAP1 POP PUSH2 0x7B6 PUSH0 DUP4 ADD DUP8 PUSH2 0x669 JUMP JUMPDEST DUP2 DUP2 SUB PUSH1 0x20 DUP4 ADD MSTORE PUSH2 0x7C9 DUP2 DUP6 DUP8 PUSH2 0x777 JUMP JUMPDEST SWAP1 POP PUSH2 0x7D8 PUSH1 0x40 DUP4 ADD DUP5 PUSH2 0x741 JUMP JUMPDEST SWAP6 SWAP5 POP POP POP POP POP JUMP JUMPDEST PUSH0 DUP1 REVERT JUMPDEST PUSH32 0x4E487B7100000000000000000000000000000000000000000000000000000000 PUSH0 MSTORE PUSH1 0x41 PUSH1 0x4 MSTORE PUSH1 0x24 PUSH0 REVERT JUMPDEST PUSH2 0x81B DUP3 PUSH2 0x561 JUMP JUMPDEST DUP2 ADD DUP2 DUP2 LT PUSH8 0xFFFFFFFFFFFFFFFF DUP3 GT OR ISZERO PUSH2 0x83A JUMPI PUSH2 0x839 PUSH2 0x7E5 JUMP JUMPDEST JUMPDEST DUP1 PUSH1 0x40 MSTORE POP POP POP JUMP JUMPDEST PUSH0 PUSH2 0x84C PUSH2 0x437 JUMP JUMPDEST SWAP1 POP PUSH2 0x858 DUP3 DUP3 PUSH2 0x812 JUMP JUMPDEST SWAP2 SWAP1 POP JUMP JUMPDEST PUSH0 PUSH8 0xFFFFFFFFFFFFFFFF DUP3 GT ISZERO PUSH2 0x877 JUMPI PUSH2 0x876 PUSH2 0x7E5 JUMP JUMPDEST JUMPDEST PUSH2 0x880 DUP3 PUSH2 0x561 JUMP JUMPDEST SWAP1 POP PUSH1 0x20 DUP2 ADD SWAP1 POP SWAP2 SWAP1 POP JUMP JUMPDEST PUSH0 PUSH2 0x89F PUSH2 0x89A DUP5 PUSH2 0x85D JUMP JUMPDEST PUSH2 0x843 JUMP JUMPDEST SWAP1 POP DUP3 DUP2 MSTORE PUSH1 0x20 DUP2 ADD DUP5 DUP5 DUP5 ADD GT ISZERO PUSH2 0x8BB JUMPI PUSH2 0x8BA PUSH2 0x7E1 JUMP JUMPDEST JUMPDEST PUSH2 0x8C6 DUP5 DUP3 DUP6 PUSH2 0x769 JUMP JUMPDEST POP SWAP4 SWAP3 POP POP POP JUMP JUMPDEST PUSH0 DUP3 PUSH1 0x1F DUP4 ADD SLT PUSH2 0x8E2 JUMPI PUSH2 0x8E1 PUSH2 0x47B JUMP JUMPDEST JUMPDEST DUP2 CALLDATALOAD PUSH2 0x8F2 DUP5 DUP3 PUSH1 0x20 DUP7 ADD PUSH2 0x88D JUMP JUMPDEST SWAP2 POP POP SWAP3 SWAP2 POP POP JUMP JUMPDEST PUSH0 DUP1 PUSH1 0x40 DUP4 DUP6 SUB SLT ISZERO PUSH2 0x911 JUMPI PUSH2 0x910 PUSH2 0x440 JUMP JUMPDEST JUMPDEST PUSH0 PUSH2 0x91E DUP6 DUP3 DUP7 ADD PUSH2 0x467 JUMP JUMPDEST SWAP3 POP POP PUSH1 0x20 DUP4 ADD CALLDATALOAD PUSH8 0xFFFFFFFFFFFFFFFF DUP2 GT ISZERO PUSH2 0x93F JUMPI PUSH2 0x93E PUSH2 0x444 JUMP JUMPDEST JUMPDEST PUSH2 0x94B DUP6 DUP3 DUP7 ADD PUSH2 0x8CE JUMP JUMPDEST SWAP2 POP POP SWAP3 POP SWAP3 SWAP1 POP JUMP JUMPDEST PUSH32 0x537461676520322066756E647320617265206C6F636B65642E00000000000000 PUSH0 DUP3 ADD MSTORE POP JUMP JUMPDEST PUSH0 PUSH2 0x989 PUSH1 0x19 DUP4 PUSH2 0x682 JUMP JUMPDEST SWAP2 POP PUSH2 0x994 DUP3 PUSH2 0x955 JUMP JUMPDEST PUSH1 0x20 DUP3 ADD SWAP1 POP SWAP2 SWAP1 POP JUMP JUMPDEST PUSH0 PUSH1 0x20 DUP3 ADD SWAP1 POP DUP2 DUP2 SUB PUSH0 DUP4 ADD MSTORE PUSH2 0x9B6 DUP2 PUSH2 0x97D JUMP JUMPDEST SWAP1 POP SWAP2 SWAP1 POP JUMP JUMPDEST PUSH32 0x4F6E6C79206F776E65722063616E2077697468647261772E0000000000000000 PUSH0 DUP3 ADD MSTORE POP JUMP JUMPDEST PUSH0 PUSH2 0x9F1 PUSH1 0x18 DUP4 PUSH2 0x682 JUMP JUMPDEST SWAP2 POP PUSH2 0x9FC DUP3 PUSH2 0x9BD JUMP JUMPDEST PUSH1 0x20 DUP3 ADD SWAP1 POP SWAP2 SWAP1 POP JUMP JUMPDEST PUSH0 PUSH1 0x20 DUP3 ADD SWAP1 POP DUP2 DUP2 SUB PUSH0 DUP4 ADD MSTORE PUSH2 0xA1E DUP2 PUSH2 0x9E5 JUMP JUMPDEST SWAP1 POP SWAP2 SWAP1 POP JUMP JUMPDEST PUSH32 0x537461676520312066756E647320617265206C6F636B65642E00000000000000 PUSH0 DUP3 ADD MSTORE POP JUMP JUMPDEST PUSH0 PUSH2 0xA59 PUSH1 0x19 DUP4 PUSH2 0x682 JUMP JUMPDEST SWAP2 POP PUSH2 0xA64 DUP3 PUSH2 0xA25 JUMP JUMPDEST PUSH1 0x20 DUP3 ADD SWAP1 POP SWAP2 SWAP1 POP JUMP JUMPDEST PUSH0 PUSH1 0x20 DUP3 ADD SWAP1 POP DUP2 DUP2 SUB PUSH0 DUP4 ADD MSTORE PUSH2 0xA86 DUP2 PUSH2 0xA4D JUMP JUMPDEST SWAP1 POP SWAP2 SWAP1 POP JUMP INVALID LOG2 PUSH5 0x6970667358 0x22 SLT KECCAK256 CREATE 0xAC 0xB9 0x29 SWAP3 PUSH29 0xA347500198324CADB51154E71C5A8D8F70AAD961AD10AD273AF364736F PUSH13 0x634300081A0033000000000000 "
				},
				"gasEstimates": {
					"creation": {
						"codeDepositCost": "551000",
						"executionCost": "infinite",
						"totalCost": "infinite"
					},
					"external": {
						"decodeData(bytes)": "infinite",
						"encodeData(uint256,string)": "infinite",
						"getBlockNo()": "441",
						"getCoinbase()": "445",
						"getCurGasPrice()": "419",
						"getCurTime()": "375",
						"owner()": "2508",
						"stage1UnlockTime()": "2491",
						"stage2UnlockTime()": "2447",
						"withdrawStage1()": "4809",
						"withdrawStage2()": "4766"
					}
				},
				"methodIdentifiers": {
					"decodeData(bytes)": "447a06f5",
					"encodeData(uint256,string)": "42a6e672",
					"getBlockNo()": "fba0e4bb",
					"getCoinbase()": "d1a82a9d",
					"getCurGasPrice()": "daee6838",
					"getCurTime()": "c0821da3",
					"owner()": "8da5cb5b",
					"stage1UnlockTime()": "70d1c571",
					"stage2UnlockTime()": "9fcb6c61",
					"withdrawStage1()": "889ec605",
					"withdrawStage2()": "68efabc0"
				}
			},
			"storageLayout": {
				"storage": [
					{
						"astId": 79,
						"contract": "level-1/ApiTest.sol:ApiTest",
						"label": "stage1UnlockTime",
						"offset": 0,
						"slot": "0",
						"type": "t_uint256"
					},
					{
						"astId": 81,
						"contract": "level-1/ApiTest.sol:ApiTest",
						"label": "stage2UnlockTime",
						"offset": 0,
						"slot": "1",
						"type": "t_uint256"
					},
					{
						"astId": 83,
						"contract": "level-1/ApiTest.sol:ApiTest",
						"label": "owner",
						"offset": 0,
						"slot": "2",
						"type": "t_address"
					}
				],
				"types": {
					"t_address": {
						"encoding": "inplace",
						"label": "address",
						"numberOfBytes": "20"
					},
					"t_uint256": {
						"encoding": "inplace",
						"label": "uint256",
						"numberOfBytes": "32"
					}
				}
			},
			"userdoc": {
				"kind": "user",
				"methods": {},
				"version": 1
			}
		}
	}
}